{
  "contractName": "CarGo",
  "abi": [
    {
      "inputs": [
        {
          "internalType": "address",
          "name": "_carAdress",
          "type": "address"
        },
        {
          "internalType": "uint256",
          "name": "_carID",
          "type": "uint256"
        },
        {
          "internalType": "uint256",
          "name": "_price",
          "type": "uint256"
        },
        {
          "internalType": "uint256",
          "name": "_extraPrice",
          "type": "uint256"
        },
        {
          "internalType": "bytes32",
          "name": "_hash",
          "type": "bytes32"
        },
        {
          "internalType": "bytes32",
          "name": "_r",
          "type": "bytes32"
        },
        {
          "internalType": "bytes32",
          "name": "_s",
          "type": "bytes32"
        },
        {
          "internalType": "uint8",
          "name": "_v",
          "type": "uint8"
        }
      ],
      "name": "registerCar",
      "outputs": [],
      "stateMutability": "payable",
      "type": "function",
      "payable": true
    },
    {
      "inputs": [
        {
          "internalType": "bytes32",
          "name": "_hash",
          "type": "bytes32"
        },
        {
          "internalType": "bytes32",
          "name": "_r",
          "type": "bytes32"
        },
        {
          "internalType": "bytes32",
          "name": "_s",
          "type": "bytes32"
        },
        {
          "internalType": "uint8",
          "name": "_v",
          "type": "uint8"
        }
      ],
      "name": "registerRenter",
      "outputs": [],
      "stateMutability": "payable",
      "type": "function",
      "payable": true
    },
    {
      "inputs": [
        {
          "internalType": "uint256",
          "name": "_carID",
          "type": "uint256"
        },
        {
          "internalType": "string",
          "name": "_cid",
          "type": "string"
        },
        {
          "internalType": "address",
          "name": "_renter",
          "type": "address"
        }
      ],
      "name": "setAccessToken",
      "outputs": [],
      "stateMutability": "nonpayable",
      "type": "function"
    },
    {
      "inputs": [
        {
          "internalType": "uint256",
          "name": "_carID",
          "type": "uint256"
        }
      ],
      "name": "getAccessToken",
      "outputs": [
        {
          "internalType": "string",
          "name": "",
          "type": "string"
        }
      ],
      "stateMutability": "view",
      "type": "function",
      "constant": true
    },
    {
      "inputs": [
        {
          "internalType": "bytes32",
          "name": "_hash",
          "type": "bytes32"
        },
        {
          "internalType": "uint8",
          "name": "_v",
          "type": "uint8"
        },
        {
          "internalType": "bytes32",
          "name": "_r",
          "type": "bytes32"
        },
        {
          "internalType": "bytes32",
          "name": "_s",
          "type": "bytes32"
        },
        {
          "internalType": "uint256",
          "name": "_carID",
          "type": "uint256"
        },
        {
          "internalType": "uint256",
          "name": "_beginTime",
          "type": "uint256"
        }
      ],
      "name": "beginBooking",
      "outputs": [],
      "stateMutability": "nonpayable",
      "type": "function"
    },
    {
      "inputs": [
        {
          "internalType": "uint256",
          "name": "_carID",
          "type": "uint256"
        },
        {
          "internalType": "uint256",
          "name": "_extraTime",
          "type": "uint256"
        }
      ],
      "name": "setExtraTime",
      "outputs": [],
      "stateMutability": "nonpayable",
      "type": "function"
    },
    {
      "inputs": [
        {
          "internalType": "uint256",
          "name": "_carID",
          "type": "uint256"
        },
        {
          "internalType": "uint256",
          "name": "_endTime",
          "type": "uint256"
        },
        {
          "internalType": "bytes32",
          "name": "_hash",
          "type": "bytes32"
        },
        {
          "internalType": "uint8",
          "name": "_v",
          "type": "uint8"
        },
        {
          "internalType": "bytes32",
          "name": "_r",
          "type": "bytes32"
        },
        {
          "internalType": "bytes32",
          "name": "_s",
          "type": "bytes32"
        }
      ],
      "name": "endBooking",
      "outputs": [],
      "stateMutability": "nonpayable",
      "type": "function"
    },
    {
      "inputs": [
        {
          "internalType": "uint256",
          "name": "_carID",
          "type": "uint256"
        }
      ],
      "name": "getTime",
      "outputs": [
        {
          "internalType": "uint256",
          "name": "",
          "type": "uint256"
        }
      ],
      "stateMutability": "view",
      "type": "function",
      "constant": true
    },
    {
      "inputs": [
        {
          "internalType": "uint256",
          "name": "_carID",
          "type": "uint256"
        }
      ],
      "name": "cancelBooking",
      "outputs": [],
      "stateMutability": "nonpayable",
      "type": "function"
    },
    {
      "inputs": [
        {
          "internalType": "uint256",
          "name": "_carID",
          "type": "uint256"
        }
      ],
      "name": "withdrawMoneyToOwner",
      "outputs": [],
      "stateMutability": "nonpayable",
      "type": "function"
    },
    {
      "inputs": [
        {
          "internalType": "uint256",
          "name": "_carID",
          "type": "uint256"
        }
      ],
      "name": "withdrawMoneyToRenter",
      "outputs": [],
      "stateMutability": "nonpayable",
      "type": "function"
    }
  ],
  "bytecode": "0x608060405234801561001057600080fd5b506120a4806100206000396000f3fe60806040526004361061009c5760003560e01c806367eb83251161006457806367eb832514610154578063736278261461017d5780638d115f49146101ba578063991acf6e146101e3578063b8a2d97f14610220578063dc21af29146102495761009c565b80630dca825e146100a157806316b8880e146100ca5780633d06d0ad146100f35780634e5a82011461011c57806358b861eb14610138575b600080fd5b3480156100ad57600080fd5b506100c860048036038101906100c3919061145f565b610272565b005b3480156100d657600080fd5b506100f160048036038101906100ec919061145f565b61062f565b005b3480156100ff57600080fd5b5061011a6004803603810190610115919061145f565b6107ea565b005b610136600480360381019061013191906114fb565b6109f2565b005b610152600480360381019061014d91906115c0565b610ae5565b005b34801561016057600080fd5b5061017b60048036038101906101769190611676565b610caf565b005b34801561018957600080fd5b506101a4600480360381019061019f919061145f565b610e19565b6040516101b19190611712565b60405180910390f35b3480156101c657600080fd5b506101e160048036038101906101dc9190611873565b610e36565b005b3480156101ef57600080fd5b5061020a6004803603810190610205919061145f565b610fbd565b604051610217919061196a565b60405180910390f35b34801561022c57600080fd5b506102476004803603810190610242919061198c565b611062565b005b34801561025557600080fd5b50610270600480360381019061026b9190611a19565b611226565b005b6005600082815260200190815260200160002060009054906101000a900473ffffffffffffffffffffffffffffffffffffffff1673ffffffffffffffffffffffffffffffffffffffff163373ffffffffffffffffffffffffffffffffffffffff1614156103be57600060016000838152602001908152602001600020541161032f576040517f08c379a000000000000000000000000000000000000000000000000000000000815260040161032690611acb565b60405180910390fd5b60006006600083815260200190815260200160002060006101000a81548173ffffffffffffffffffffffffffffffffffffffff021916908373ffffffffffffffffffffffffffffffffffffffff160217905550604051806020016040528060008152506009600083815260200190815260200160002090805190602001906103b8929190611372565b5061062c565b6006600082815260200190815260200160002060009054906101000a900473ffffffffffffffffffffffffffffffffffffffff1673ffffffffffffffffffffffffffffffffffffffff163373ffffffffffffffffffffffffffffffffffffffff16141561062b5760006001600083815260200190815260200160002054111561059f57620f4240600a60003373ffffffffffffffffffffffffffffffffffffffff1673ffffffffffffffffffffffffffffffffffffffff16815260200190815260200160002060008282546104939190611b1a565b925050819055506000620f4240600a60003373ffffffffffffffffffffffffffffffffffffffff1673ffffffffffffffffffffffffffffffffffffffff168152602001908152602001600020546104ea9190611b1a565b905080600080848152602001908152602001600020600082825461050e9190611b4e565b9250508190555060006008600084815260200190815260200160002060006101000a81548160ff0219169083151502179055506000600b60003373ffffffffffffffffffffffffffffffffffffffff1673ffffffffffffffffffffffffffffffffffffffff16815260200190815260200160002060006101000a81548160ff0219169083151502179055505061062a565b60006006600083815260200190815260200160002060006101000a81548173ffffffffffffffffffffffffffffffffffffffff021916908373ffffffffffffffffffffffffffffffffffffffff16021790555060405180602001604052806000815250600960008381526020019081526020016000209080519060200190610628929190611372565b505b5b5b50565b6005600082815260200190815260200160002060009054906101000a900473ffffffffffffffffffffffffffffffffffffffff1673ffffffffffffffffffffffffffffffffffffffff163373ffffffffffffffffffffffffffffffffffffffff16146106d0576040517f08c379a00000000000000000000000000000000000000000000000000000000081526004016106c790611bf0565b60405180910390fd5b600015156008600083815260200190815260200160002060009054906101000a900460ff16151514610737576040517f08c379a000000000000000000000000000000000000000000000000000000000815260040161072e90611c82565b60405180910390fd5b600080600083815260200190815260200160002054905060008060008481526020019081526020016000208190555060006005600084815260200190815260200160002060009054906101000a900473ffffffffffffffffffffffffffffffffffffffff1690508073ffffffffffffffffffffffffffffffffffffffff166108fc839081150290604051600060405180830381858888f193505050501580156107e4573d6000803e3d6000fd5b50505050565b6006600082815260200190815260200160002060009054906101000a900473ffffffffffffffffffffffffffffffffffffffff1673ffffffffffffffffffffffffffffffffffffffff163373ffffffffffffffffffffffffffffffffffffffff161461088b576040517f08c379a000000000000000000000000000000000000000000000000000000000815260040161088290611cee565b60405180910390fd5b60001515600b60003373ffffffffffffffffffffffffffffffffffffffff1673ffffffffffffffffffffffffffffffffffffffff16815260200190815260200160002060009054906101000a900460ff1615151461091e576040517f08c379a000000000000000000000000000000000000000000000000000000000815260040161091590611c82565b60405180910390fd5b6000600a60003373ffffffffffffffffffffffffffffffffffffffff1673ffffffffffffffffffffffffffffffffffffffff1681526020019081526020016000205490506000600a60003373ffffffffffffffffffffffffffffffffffffffff1673ffffffffffffffffffffffffffffffffffffffff168152602001908152602001600020819055503373ffffffffffffffffffffffffffffffffffffffff166108fc829081150290604051600060405180830381858888f193505050501580156109ed573d6000803e3d6000fd5b505050565b655af3107a4000341015610a3b576040517f08c379a0000000000000000000000000000000000000000000000000000000008152600401610a3290611d80565b60405180910390fd5b610a5c73fe0738a845dcec5166378e1b4a735709df57e0e3858386866112e3565b610a9b576040517f08c379a0000000000000000000000000000000000000000000000000000000008152600401610a9290611dec565b60405180910390fd5b34600a60003373ffffffffffffffffffffffffffffffffffffffff1673ffffffffffffffffffffffffffffffffffffffff1681526020019081526020016000208190555050505050565b655af3107a4000341015610b2e576040517f08c379a0000000000000000000000000000000000000000000000000000000008152600401610b2590611d80565b60405180910390fd5b610b4f73fe0738a845dcec5166378e1b4a735709df57e0e3858386866112e3565b610b8e576040517f08c379a0000000000000000000000000000000000000000000000000000000008152600401610b8590611dec565b60405180910390fd5b3460008089815260200190815260200160002081905550336005600089815260200190815260200160002060006101000a81548173ffffffffffffffffffffffffffffffffffffffff021916908373ffffffffffffffffffffffffffffffffffffffff16021790555085600260008981526020019081526020016000208190555084600460008981526020019081526020016000208190555060006008600089815260200190815260200160002060006101000a81548160ff021916908315150217905550876007600089815260200190815260200160002060006101000a81548173ffffffffffffffffffffffffffffffffffffffff021916908373ffffffffffffffffffffffffffffffffffffffff1602179055505050505050505050565b6006600087815260200190815260200160002060009054906101000a900473ffffffffffffffffffffffffffffffffffffffff1673ffffffffffffffffffffffffffffffffffffffff163373ffffffffffffffffffffffffffffffffffffffff1614610d50576040517f08c379a0000000000000000000000000000000000000000000000000000000008152600401610d4790611e58565b60405180910390fd5b610d906007600088815260200190815260200160002060009054906101000a900473ffffffffffffffffffffffffffffffffffffffff16858585856112e3565b610dcf576040517f08c379a0000000000000000000000000000000000000000000000000000000008152600401610dc690611ec4565b60405180910390fd5b6000600160008881526020019081526020016000205486610df09190611b1a565b6002600089815260200190815260200160002054610e0e9190611ee4565b905050505050505050565b600060016000838152602001908152602001600020549050919050565b600015156008600085815260200190815260200160002060009054906101000a900460ff16151514610e9d576040517f08c379a0000000000000000000000000000000000000000000000000000000008152600401610e9490611f8a565b60405180910390fd5b6005600084815260200190815260200160002060009054906101000a900473ffffffffffffffffffffffffffffffffffffffff1673ffffffffffffffffffffffffffffffffffffffff163373ffffffffffffffffffffffffffffffffffffffff1614610f3e576040517f08c379a0000000000000000000000000000000000000000000000000000000008152600401610f3590611bf0565b60405180910390fd5b81600960008581526020019081526020016000209080519060200190610f65929190611372565b50806006600085815260200190815260200160002060006101000a81548173ffffffffffffffffffffffffffffffffffffffff021916908373ffffffffffffffffffffffffffffffffffffffff160217905550505050565b6060600960008381526020019081526020016000208054610fdd90611fd9565b80601f016020809104026020016040519081016040528092919081815260200182805461100990611fd9565b80156110565780601f1061102b57610100808354040283529160200191611056565b820191906000526020600020905b81548152906001019060200180831161103957829003601f168201915b50505050509050919050565b6006600083815260200190815260200160002060009054906101000a900473ffffffffffffffffffffffffffffffffffffffff1673ffffffffffffffffffffffffffffffffffffffff163373ffffffffffffffffffffffffffffffffffffffff1614611103576040517f08c379a00000000000000000000000000000000000000000000000000000000081526004016110fa90611cee565b60405180910390fd5b6111436007600084815260200190815260200160002060009054906101000a900473ffffffffffffffffffffffffffffffffffffffff16878787876112e3565b611182576040517f08c379a000000000000000000000000000000000000000000000000000000000815260040161117990611ec4565b60405180910390fd5b80600160008481526020019081526020016000208190555060016008600084815260200190815260200160002060006101000a81548160ff0219169083151502179055506001600b60003373ffffffffffffffffffffffffffffffffffffffff1673ffffffffffffffffffffffffffffffffffffffff16815260200190815260200160002060006101000a81548160ff021916908315150217905550505050505050565b6005600083815260200190815260200160002060009054906101000a900473ffffffffffffffffffffffffffffffffffffffff1673ffffffffffffffffffffffffffffffffffffffff163373ffffffffffffffffffffffffffffffffffffffff16146112c7576040517f08c379a00000000000000000000000000000000000000000000000000000000081526004016112be90611bf0565b60405180910390fd5b8060036000848152602001908152602001600020819055505050565b600080600186868686604051600081526020016040526040516113099493929190612029565b6020604051602081039080840390855afa15801561132b573d6000803e3d6000fd5b5050506020604051035190508673ffffffffffffffffffffffffffffffffffffffff168173ffffffffffffffffffffffffffffffffffffffff161491505095945050505050565b82805461137e90611fd9565b90600052602060002090601f0160209004810192826113a057600085556113e7565b82601f106113b957805160ff19168380011785556113e7565b828001600101855582156113e7579182015b828111156113e65782518255916020019190600101906113cb565b5b5090506113f491906113f8565b5090565b5b808211156114115760008160009055506001016113f9565b5090565b6000604051905090565b600080fd5b600080fd5b6000819050919050565b61143c81611429565b811461144757600080fd5b50565b60008135905061145981611433565b92915050565b6000602082840312156114755761147461141f565b5b60006114838482850161144a565b91505092915050565b6000819050919050565b61149f8161148c565b81146114aa57600080fd5b50565b6000813590506114bc81611496565b92915050565b600060ff82169050919050565b6114d8816114c2565b81146114e357600080fd5b50565b6000813590506114f5816114cf565b92915050565b600080600080608085870312156115155761151461141f565b5b6000611523878288016114ad565b9450506020611534878288016114ad565b9350506040611545878288016114ad565b9250506060611556878288016114e6565b91505092959194509250565b600073ffffffffffffffffffffffffffffffffffffffff82169050919050565b600061158d82611562565b9050919050565b61159d81611582565b81146115a857600080fd5b50565b6000813590506115ba81611594565b92915050565b600080600080600080600080610100898b0312156115e1576115e061141f565b5b60006115ef8b828c016115ab565b98505060206116008b828c0161144a565b97505060406116118b828c0161144a565b96505060606116228b828c0161144a565b95505060806116338b828c016114ad565b94505060a06116448b828c016114ad565b93505060c06116558b828c016114ad565b92505060e06116668b828c016114e6565b9150509295985092959890939650565b60008060008060008060c087890312156116935761169261141f565b5b60006116a189828a0161144a565b96505060206116b289828a0161144a565b95505060406116c389828a016114ad565b94505060606116d489828a016114e6565b93505060806116e589828a016114ad565b92505060a06116f689828a016114ad565b9150509295509295509295565b61170c81611429565b82525050565b60006020820190506117276000830184611703565b92915050565b600080fd5b600080fd5b6000601f19601f8301169050919050565b7f4e487b7100000000000000000000000000000000000000000000000000000000600052604160045260246000fd5b61178082611737565b810181811067ffffffffffffffff8211171561179f5761179e611748565b5b80604052505050565b60006117b2611415565b90506117be8282611777565b919050565b600067ffffffffffffffff8211156117de576117dd611748565b5b6117e782611737565b9050602081019050919050565b82818337600083830152505050565b6000611816611811846117c3565b6117a8565b90508281526020810184848401111561183257611831611732565b5b61183d8482856117f4565b509392505050565b600082601f83011261185a5761185961172d565b5b813561186a848260208601611803565b91505092915050565b60008060006060848603121561188c5761188b61141f565b5b600061189a8682870161144a565b935050602084013567ffffffffffffffff8111156118bb576118ba611424565b5b6118c786828701611845565b92505060406118d8868287016115ab565b9150509250925092565b600081519050919050565b600082825260208201905092915050565b60005b8381101561191c578082015181840152602081019050611901565b8381111561192b576000848401525b50505050565b600061193c826118e2565b61194681856118ed565b93506119568185602086016118fe565b61195f81611737565b840191505092915050565b600060208201905081810360008301526119848184611931565b905092915050565b60008060008060008060c087890312156119a9576119a861141f565b5b60006119b789828a016114ad565b96505060206119c889828a016114e6565b95505060406119d989828a016114ad565b94505060606119ea89828a016114ad565b93505060806119fb89828a0161144a565b92505060a0611a0c89828a0161144a565b9150509295509295509295565b60008060408385031215611a3057611a2f61141f565b5b6000611a3e8582860161144a565b9250506020611a4f8582860161144a565b9150509250929050565b7f526964652068617320737461727465642c20796f752063616e27742063616e6360008201527f656c206974000000000000000000000000000000000000000000000000000000602082015250565b6000611ab56025836118ed565b9150611ac082611a59565b604082019050919050565b60006020820190508181036000830152611ae481611aa8565b9050919050565b7f4e487b7100000000000000000000000000000000000000000000000000000000600052601160045260246000fd5b6000611b2582611429565b9150611b3083611429565b925082821015611b4357611b42611aeb565b5b828203905092915050565b6000611b5982611429565b9150611b6483611429565b9250827fffffffffffffffffffffffffffffffffffffffffffffffffffffffffffffffff03821115611b9957611b98611aeb565b5b828201905092915050565b7f594f5520415245204e4f5420544845204f574e45520000000000000000000000600082015250565b6000611bda6015836118ed565b9150611be582611ba4565b602082019050919050565b60006020820190508181036000830152611c0981611bcd565b9050919050565b7f43414e54205749544844524157205748454e2052454e5445522049532053544960008201527f4c4c2044524956494e4700000000000000000000000000000000000000000000602082015250565b6000611c6c602a836118ed565b9150611c7782611c10565b604082019050919050565b60006020820190508181036000830152611c9b81611c5f565b9050919050565b7f594f5520415245204e4f54205448452052454e54455200000000000000000000600082015250565b6000611cd86016836118ed565b9150611ce382611ca2565b602082019050919050565b60006020820190508181036000830152611d0781611ccb565b9050919050565b7f4e6f7420656e6f7567682045746865722070726f76696465642061732064657060008201527f6f73697400000000000000000000000000000000000000000000000000000000602082015250565b6000611d6a6024836118ed565b9150611d7582611d0e565b604082019050919050565b60006020820190508181036000830152611d9981611d5d565b9050919050565b7f4e4f54205349474e454420425920534552564943452050524f56494445520000600082015250565b6000611dd6601e836118ed565b9150611de182611da0565b602082019050919050565b60006020820190508181036000830152611e0581611dc9565b9050919050565b7f594f5520415245204e4f54205448452043555252454e542052454e5445520000600082015250565b6000611e42601e836118ed565b9150611e4d82611e0c565b602082019050919050565b60006020820190508181036000830152611e7181611e35565b9050919050565b7f54494d4520574153204e4f54205349474e454420425920544845204341520000600082015250565b6000611eae601e836118ed565b9150611eb982611e78565b602082019050919050565b60006020820190508181036000830152611edd81611ea1565b9050919050565b6000611eef82611429565b9150611efa83611429565b9250817fffffffffffffffffffffffffffffffffffffffffffffffffffffffffffffffff0483118215151615611f3357611f32611aeb565b5b828202905092915050565b7f4341522049532055534544000000000000000000000000000000000000000000600082015250565b6000611f74600b836118ed565b9150611f7f82611f3e565b602082019050919050565b60006020820190508181036000830152611fa381611f67565b9050919050565b7f4e487b7100000000000000000000000000000000000000000000000000000000600052602260045260246000fd5b60006002820490506001821680611ff157607f821691505b6020821081141561200557612004611faa565b5b50919050565b6120148161148c565b82525050565b612023816114c2565b82525050565b600060808201905061203e600083018761200b565b61204b602083018661201a565b612058604083018561200b565b612065606083018461200b565b9594505050505056fea264697066735822122026267f21b57b304731514fdd800e3df8353207803b82d53bf2db52c5940b39f164736f6c63430008090033",
  "immutableReferences": {},
  "source": "// SPDX-License-Identifier: MIT\npragma solidity ^0.8.9;\n\ncontract CarGo {\n    uint256 constant DEPOSIT = 100000000000000;\n    uint256 constant PENALTY = 1000000;\n    address constant SERVICE_PROVIDER =0xfe0738A845DCEc5166378e1b4a735709DF57e0e3;\n        //0xd187E168bb36C41d767435Eb61E45ba08E29fC86;\n\n    mapping(uint256 => uint256) carBalance;\n    mapping(uint256 => uint256) startTime;\n    mapping(uint256 => uint256) carPrice;\n    mapping(uint256 => uint256) extraTime;\n    mapping(uint256 => uint256) extraTimeCharge;\n    mapping(uint256 => address) carOwner;\n    mapping(uint256 => address) carRenter; \n    mapping(uint256 => address) carAdress;\n    mapping(uint256 => bool) carOccupied;\n    mapping(uint256 => string) accessToken;\n\n    // retner attributes\n    mapping(address => uint256) renterBalance;\n    mapping(address => bool) renterOccupied;\n\n    modifier checkDeposit() {\n        require(msg.value >= DEPOSIT, \"Not enough Ether provided as deposit\");\n        _;\n    }\n\n    function isSignatureValid(\n        address _address,\n        bytes32 _hash,\n        uint8 _v,\n        bytes32 _r,\n        bytes32 _s\n    ) private pure returns (bool) {\n        address _signer = ecrecover(_hash, _v, _r, _s);\n        return (_signer == _address);\n    }\n\n    function registerCar(\n        address _carAdress,\n        uint256 _carID,\n        uint256 _price,\n        uint256 _extraPrice,\n        bytes32 _hash,\n        bytes32 _r,\n        bytes32 _s,\n        uint8 _v\n    ) external payable checkDeposit {\n        require(\n            isSignatureValid(SERVICE_PROVIDER, _hash, _v, _r, _s),\n            \"NOT SIGNED BY SERVICE PROVIDER\"\n        );\n        carBalance[_carID] = msg.value;\n        carOwner[_carID] = msg.sender;\n        carPrice[_carID] = _price;\n        extraTimeCharge[_carID] = _extraPrice;\n        carOccupied[_carID] = false;\n        carAdress[_carID] = _carAdress;\n    }\n\n    // Register retner on-chain\n    function registerRenter(\n        bytes32 _hash,\n        bytes32 _r,\n        bytes32 _s,\n        uint8 _v\n    ) external payable checkDeposit {\n        require(\n            isSignatureValid(SERVICE_PROVIDER, _hash, _v, _r, _s),\n            \"NOT SIGNED BY SERVICE PROVIDER\"\n        );\n        renterBalance[msg.sender] = msg.value;\n    }\n\n    function setAccessToken(\n        uint256 _carID,\n        string memory _cid,\n        address _renter\n    ) external {\n        require(carOccupied[_carID] == false, \"CAR IS USED\");\n        require(msg.sender == carOwner[_carID], \"YOU ARE NOT THE OWNER\");\n        accessToken[_carID] = _cid;\n        carRenter[_carID] = _renter;\n    }\n\n    function getAccessToken(uint256 _carID)\n        external\n        view\n        returns (string memory)\n    {\n        return accessToken[_carID];\n    }\n\n    function beginBooking(\n        bytes32 _hash,\n        uint8 _v,\n        bytes32 _r,\n        bytes32 _s,\n        uint256 _carID,\n        uint256 _beginTime\n    ) external {\n        require(msg.sender == carRenter[_carID], \"YOU ARE NOT THE RENTER\");\n        require(\n            isSignatureValid(carAdress[_carID], _hash, _v, _r, _s),\n            \"TIME WAS NOT SIGNED BY THE CAR\"\n        );\n        startTime[_carID] = _beginTime;\n        carOccupied[_carID] = true;\n        renterOccupied[msg.sender] = true;\n    }\n\n    function setExtraTime(uint256 _carID, uint256 _extraTime) external {\n        require(msg.sender == carOwner[_carID], \"YOU ARE NOT THE OWNER\");\n        extraTime[_carID] = _extraTime;\n    }\n\n    function endBooking(\n        uint256 _carID,\n        uint256 _endTime,\n        bytes32 _hash,\n        uint8 _v,\n        bytes32 _r,\n        bytes32 _s\n    ) external {\n        require(\n            msg.sender == carRenter[_carID],\n            \"YOU ARE NOT THE CURRENT RENTER\"\n        );\n        require(\n            isSignatureValid(carAdress[_carID], _hash, _v, _r, _s),\n            \"TIME WAS NOT SIGNED BY THE CAR\"\n        );\n\n        uint256 fee = carPrice[_carID] * (_endTime - startTime[_carID]);\n        \n\n        // if (extraTime[_carID] > 0) {\n        //     fee += extraTime[_carID] * extraTimeCharge[_carID];\n        // }\n        //100000000000000\n        // carBalance[_carID] += fee;\n        // carOccupied[_carID] = false;\n        // renterBalance[msg.sender] -= fee;\n        // renterOccupied[msg.sender] = false;\n    }\n\n    function getTime(uint256 _carID)\n        external\n        view\n        returns (uint256)\n    {\n        return startTime[_carID];\n    }\n\n    function cancelBooking(uint256 _carID) external {\n        if (msg.sender == carOwner[_carID]) {\n            require(\n                startTime[_carID] > 0,\n                \"Ride has started, you can't cancel it\"\n            );\n            carRenter[_carID] = address(0);\n            accessToken[_carID] = \"\";\n        } else if (msg.sender == carRenter[_carID]) {\n            if (startTime[_carID] > 0) {\n                renterBalance[msg.sender] -= PENALTY;\n                uint256 fee = renterBalance[msg.sender] - PENALTY;\n                carBalance[_carID] += fee;\n                carOccupied[_carID] = false;\n                renterOccupied[msg.sender] = false;\n            } else {\n                carRenter[_carID] = address(0);\n                accessToken[_carID] = \"\";\n            }\n        }\n    }\n\n    function withdrawMoneyToOwner(uint256 _carID) external {\n        require(msg.sender == carOwner[_carID], \"YOU ARE NOT THE OWNER\");\n        require(carOccupied[_carID] == false, \"CANT WITHDRAW WHEN RENTER IS STILL DRIVING\");\n\n        uint256 _amount = carBalance[_carID];\n        carBalance[_carID] = 0;\n        address _to = carOwner[_carID];\n\n        payable(_to).transfer(_amount);\n    }\n\n    function withdrawMoneyToRenter(uint256 _carID) external {\n        require(msg.sender == carRenter[_carID], \"YOU ARE NOT THE RENTER\");\n        require(\n            renterOccupied[msg.sender] == false,\n            \"CANT WITHDRAW WHEN RENTER IS STILL DRIVING\"\n        );\n        uint256 _amount = renterBalance[msg.sender];\n        renterBalance[msg.sender] = 0;\n        payable(msg.sender).transfer(_amount);\n    }\n}",
  "sourcePath": "/home/aris/Desktop/decentalised-car-sharing-system/truffle/contracts/CarGo.sol",
  "compiler": {
    "name": "solc",
    "version": "0.8.9+commit.e5eed63a.Emscripten.clang"
  },
  "schemaVersion": "3.4.7",
  "updatedAt": "2022-05-22T11:08:46.857Z",
  "networkType": "ethereum",
  "devdoc": {
    "kind": "dev",
    "methods": {},
    "version": 1
  },
  "userdoc": {
    "kind": "user",
    "methods": {},
    "version": 1
  }
}