{
  "contractName": "CarGo",
  "abi": [
    {
      "inputs": [
        {
          "internalType": "address",
          "name": "_carAdress",
          "type": "address"
        },
        {
          "internalType": "uint256",
          "name": "_carID",
          "type": "uint256"
        },
        {
          "internalType": "uint256",
          "name": "_price",
          "type": "uint256"
        },
        {
          "internalType": "uint256",
          "name": "_extraPrice",
          "type": "uint256"
        },
        {
          "internalType": "bytes32",
          "name": "_hash",
          "type": "bytes32"
        },
        {
          "internalType": "bytes32",
          "name": "_r",
          "type": "bytes32"
        },
        {
          "internalType": "bytes32",
          "name": "_s",
          "type": "bytes32"
        },
        {
          "internalType": "uint8",
          "name": "_v",
          "type": "uint8"
        }
      ],
      "name": "registerCar",
      "outputs": [],
      "stateMutability": "payable",
      "type": "function",
      "payable": true
    },
    {
      "inputs": [
        {
          "internalType": "bytes32",
          "name": "_hash",
          "type": "bytes32"
        },
        {
          "internalType": "bytes32",
          "name": "_r",
          "type": "bytes32"
        },
        {
          "internalType": "bytes32",
          "name": "_s",
          "type": "bytes32"
        },
        {
          "internalType": "uint8",
          "name": "_v",
          "type": "uint8"
        }
      ],
      "name": "registerRenter",
      "outputs": [],
      "stateMutability": "payable",
      "type": "function",
      "payable": true
    },
    {
      "inputs": [
        {
          "internalType": "uint256",
          "name": "_carID",
          "type": "uint256"
        },
        {
          "internalType": "string",
          "name": "_cid",
          "type": "string"
        },
        {
          "internalType": "address",
          "name": "_renter",
          "type": "address"
        }
      ],
      "name": "setAccessToken",
      "outputs": [],
      "stateMutability": "nonpayable",
      "type": "function"
    },
    {
      "inputs": [
        {
          "internalType": "uint256",
          "name": "_carID",
          "type": "uint256"
        }
      ],
      "name": "getAccessToken",
      "outputs": [
        {
          "internalType": "string",
          "name": "",
          "type": "string"
        }
      ],
      "stateMutability": "view",
      "type": "function",
      "constant": true
    },
    {
      "inputs": [
        {
          "internalType": "bytes32",
          "name": "_hash",
          "type": "bytes32"
        },
        {
          "internalType": "uint8",
          "name": "_v",
          "type": "uint8"
        },
        {
          "internalType": "bytes32",
          "name": "_r",
          "type": "bytes32"
        },
        {
          "internalType": "bytes32",
          "name": "_s",
          "type": "bytes32"
        },
        {
          "internalType": "uint256",
          "name": "_carID",
          "type": "uint256"
        },
        {
          "internalType": "uint256",
          "name": "_beginTime",
          "type": "uint256"
        }
      ],
      "name": "beginBooking",
      "outputs": [],
      "stateMutability": "nonpayable",
      "type": "function"
    },
    {
      "inputs": [
        {
          "internalType": "uint256",
          "name": "_carID",
          "type": "uint256"
        },
        {
          "internalType": "uint256",
          "name": "_extraTime",
          "type": "uint256"
        }
      ],
      "name": "setExtraTime",
      "outputs": [],
      "stateMutability": "nonpayable",
      "type": "function"
    },
    {
      "inputs": [
        {
          "internalType": "uint256",
          "name": "_carID",
          "type": "uint256"
        },
        {
          "internalType": "uint256",
          "name": "_endTime",
          "type": "uint256"
        },
        {
          "internalType": "bytes32",
          "name": "_hash",
          "type": "bytes32"
        },
        {
          "internalType": "uint8",
          "name": "_v",
          "type": "uint8"
        },
        {
          "internalType": "bytes32",
          "name": "_r",
          "type": "bytes32"
        },
        {
          "internalType": "bytes32",
          "name": "_s",
          "type": "bytes32"
        }
      ],
      "name": "endBooking",
      "outputs": [],
      "stateMutability": "nonpayable",
      "type": "function"
    },
    {
      "inputs": [
        {
          "internalType": "uint256",
          "name": "_carID",
          "type": "uint256"
        }
      ],
      "name": "cancelBooking",
      "outputs": [],
      "stateMutability": "nonpayable",
      "type": "function"
    },
    {
      "inputs": [
        {
          "internalType": "uint256",
          "name": "_carID",
          "type": "uint256"
        }
      ],
      "name": "withdrawMoneyToOwner",
      "outputs": [],
      "stateMutability": "nonpayable",
      "type": "function"
    },
    {
      "inputs": [
        {
          "internalType": "uint256",
          "name": "_carID",
          "type": "uint256"
        }
      ],
      "name": "withdrawMoneyToRenter",
      "outputs": [],
      "stateMutability": "nonpayable",
      "type": "function"
    }
  ],
  "bytecode": "0x608060405234801561001057600080fd5b5061217b806100206000396000f3fe6080604052600436106100915760003560e01c806367eb83251161005957806367eb8325146101495780638d115f4914610172578063991acf6e1461019b578063b8a2d97f146101d8578063dc21af291461020157610091565b80630dca825e1461009657806316b8880e146100bf5780633d06d0ad146100e85780634e5a82011461011157806358b861eb1461012d575b600080fd5b3480156100a257600080fd5b506100bd60048036038101906100b89190611560565b61022a565b005b3480156100cb57600080fd5b506100e660048036038101906100e19190611560565b6105ee565b005b3480156100f457600080fd5b5061010f600480360381019061010a9190611560565b6107a9565b005b61012b600480360381019061012691906115fc565b6109b1565b005b610147600480360381019061014291906116c1565b610aa4565b005b34801561015557600080fd5b50610170600480360381019061016b9190611777565b610c6e565b005b34801561017e57600080fd5b506101996004803603810190610194919061194a565b610f37565b005b3480156101a757600080fd5b506101c260048036038101906101bd9190611560565b6110be565b6040516101cf9190611a41565b60405180910390f35b3480156101e457600080fd5b506101ff60048036038101906101fa9190611a63565b611163565b005b34801561020d57600080fd5b5061022860048036038101906102239190611af0565b611327565b005b6005600082815260200190815260200160002060009054906101000a900473ffffffffffffffffffffffffffffffffffffffff1673ffffffffffffffffffffffffffffffffffffffff163373ffffffffffffffffffffffffffffffffffffffff161415610377576000600160008381526020019081526020016000205411156102e8576040517f08c379a00000000000000000000000000000000000000000000000000000000081526004016102df90611ba2565b60405180910390fd5b60006006600083815260200190815260200160002060006101000a81548173ffffffffffffffffffffffffffffffffffffffff021916908373ffffffffffffffffffffffffffffffffffffffff16021790555060405180602001604052806000815250600960008381526020019081526020016000209080519060200190610371929190611473565b506105eb565b6006600082815260200190815260200160002060009054906101000a900473ffffffffffffffffffffffffffffffffffffffff1673ffffffffffffffffffffffffffffffffffffffff163373ffffffffffffffffffffffffffffffffffffffff1614156105ea5760006001600083815260200190815260200160002054111561055e576509184e72a000600a60003373ffffffffffffffffffffffffffffffffffffffff1673ffffffffffffffffffffffffffffffffffffffff168152602001908152602001600020600082825461044f9190611bf1565b9250508190555060006509184e72a000600a60003373ffffffffffffffffffffffffffffffffffffffff1673ffffffffffffffffffffffffffffffffffffffff168152602001908152602001600020546104a99190611bf1565b90508060008084815260200190815260200160002060008282546104cd9190611c25565b9250508190555060006008600084815260200190815260200160002060006101000a81548160ff0219169083151502179055506000600b60003373ffffffffffffffffffffffffffffffffffffffff1673ffffffffffffffffffffffffffffffffffffffff16815260200190815260200160002060006101000a81548160ff021916908315150217905550506105e9565b60006006600083815260200190815260200160002060006101000a81548173ffffffffffffffffffffffffffffffffffffffff021916908373ffffffffffffffffffffffffffffffffffffffff160217905550604051806020016040528060008152506009600083815260200190815260200160002090805190602001906105e7929190611473565b505b5b5b50565b6005600082815260200190815260200160002060009054906101000a900473ffffffffffffffffffffffffffffffffffffffff1673ffffffffffffffffffffffffffffffffffffffff163373ffffffffffffffffffffffffffffffffffffffff161461068f576040517f08c379a000000000000000000000000000000000000000000000000000000000815260040161068690611cc7565b60405180910390fd5b600015156008600083815260200190815260200160002060009054906101000a900460ff161515146106f6576040517f08c379a00000000000000000000000000000000000000000000000000000000081526004016106ed90611d59565b60405180910390fd5b600080600083815260200190815260200160002054905060008060008481526020019081526020016000208190555060006005600084815260200190815260200160002060009054906101000a900473ffffffffffffffffffffffffffffffffffffffff1690508073ffffffffffffffffffffffffffffffffffffffff166108fc839081150290604051600060405180830381858888f193505050501580156107a3573d6000803e3d6000fd5b50505050565b6006600082815260200190815260200160002060009054906101000a900473ffffffffffffffffffffffffffffffffffffffff1673ffffffffffffffffffffffffffffffffffffffff163373ffffffffffffffffffffffffffffffffffffffff161461084a576040517f08c379a000000000000000000000000000000000000000000000000000000000815260040161084190611dc5565b60405180910390fd5b60001515600b60003373ffffffffffffffffffffffffffffffffffffffff1673ffffffffffffffffffffffffffffffffffffffff16815260200190815260200160002060009054906101000a900460ff161515146108dd576040517f08c379a00000000000000000000000000000000000000000000000000000000081526004016108d490611d59565b60405180910390fd5b6000600a60003373ffffffffffffffffffffffffffffffffffffffff1673ffffffffffffffffffffffffffffffffffffffff1681526020019081526020016000205490506000600a60003373ffffffffffffffffffffffffffffffffffffffff1673ffffffffffffffffffffffffffffffffffffffff168152602001908152602001600020819055503373ffffffffffffffffffffffffffffffffffffffff166108fc829081150290604051600060405180830381858888f193505050501580156109ac573d6000803e3d6000fd5b505050565b655af3107a40003410156109fa576040517f08c379a00000000000000000000000000000000000000000000000000000000081526004016109f190611e57565b60405180910390fd5b610a1b73d187e168bb36c41d767435eb61e45ba08e29fc86858386866113e4565b610a5a576040517f08c379a0000000000000000000000000000000000000000000000000000000008152600401610a5190611ec3565b60405180910390fd5b34600a60003373ffffffffffffffffffffffffffffffffffffffff1673ffffffffffffffffffffffffffffffffffffffff1681526020019081526020016000208190555050505050565b655af3107a4000341015610aed576040517f08c379a0000000000000000000000000000000000000000000000000000000008152600401610ae490611e57565b60405180910390fd5b610b0e73d187e168bb36c41d767435eb61e45ba08e29fc86858386866113e4565b610b4d576040517f08c379a0000000000000000000000000000000000000000000000000000000008152600401610b4490611ec3565b60405180910390fd5b3460008089815260200190815260200160002081905550336005600089815260200190815260200160002060006101000a81548173ffffffffffffffffffffffffffffffffffffffff021916908373ffffffffffffffffffffffffffffffffffffffff16021790555085600260008981526020019081526020016000208190555084600460008981526020019081526020016000208190555060006008600089815260200190815260200160002060006101000a81548160ff021916908315150217905550876007600089815260200190815260200160002060006101000a81548173ffffffffffffffffffffffffffffffffffffffff021916908373ffffffffffffffffffffffffffffffffffffffff1602179055505050505050505050565b6006600087815260200190815260200160002060009054906101000a900473ffffffffffffffffffffffffffffffffffffffff1673ffffffffffffffffffffffffffffffffffffffff163373ffffffffffffffffffffffffffffffffffffffff1614610d0f576040517f08c379a0000000000000000000000000000000000000000000000000000000008152600401610d0690611f2f565b60405180910390fd5b610d4f6007600088815260200190815260200160002060009054906101000a900473ffffffffffffffffffffffffffffffffffffffff16858585856113e4565b610d8e576040517f08c379a0000000000000000000000000000000000000000000000000000000008152600401610d8590611f9b565b60405180910390fd5b6000600160008881526020019081526020016000205486610daf9190611bf1565b6002600089815260200190815260200160002054610dcd9190611fbb565b9050600060036000898152602001908152602001600020541115610e2b5760046000888152602001908152602001600020546003600089815260200190815260200160002054610e1d9190611fbb565b81610e289190611c25565b90505b806000808981526020019081526020016000206000828254610e4d9190611c25565b9250508190555060006008600089815260200190815260200160002060006101000a81548160ff02191690831515021790555080600a60003373ffffffffffffffffffffffffffffffffffffffff1673ffffffffffffffffffffffffffffffffffffffff1681526020019081526020016000206000828254610ecf9190611bf1565b925050819055506000600b60003373ffffffffffffffffffffffffffffffffffffffff1673ffffffffffffffffffffffffffffffffffffffff16815260200190815260200160002060006101000a81548160ff02191690831515021790555050505050505050565b600015156008600085815260200190815260200160002060009054906101000a900460ff16151514610f9e576040517f08c379a0000000000000000000000000000000000000000000000000000000008152600401610f9590612061565b60405180910390fd5b6005600084815260200190815260200160002060009054906101000a900473ffffffffffffffffffffffffffffffffffffffff1673ffffffffffffffffffffffffffffffffffffffff163373ffffffffffffffffffffffffffffffffffffffff161461103f576040517f08c379a000000000000000000000000000000000000000000000000000000000815260040161103690611cc7565b60405180910390fd5b81600960008581526020019081526020016000209080519060200190611066929190611473565b50806006600085815260200190815260200160002060006101000a81548173ffffffffffffffffffffffffffffffffffffffff021916908373ffffffffffffffffffffffffffffffffffffffff160217905550505050565b60606009600083815260200190815260200160002080546110de906120b0565b80601f016020809104026020016040519081016040528092919081815260200182805461110a906120b0565b80156111575780601f1061112c57610100808354040283529160200191611157565b820191906000526020600020905b81548152906001019060200180831161113a57829003601f168201915b50505050509050919050565b6006600083815260200190815260200160002060009054906101000a900473ffffffffffffffffffffffffffffffffffffffff1673ffffffffffffffffffffffffffffffffffffffff163373ffffffffffffffffffffffffffffffffffffffff1614611204576040517f08c379a00000000000000000000000000000000000000000000000000000000081526004016111fb90611dc5565b60405180910390fd5b6112446007600084815260200190815260200160002060009054906101000a900473ffffffffffffffffffffffffffffffffffffffff16878787876113e4565b611283576040517f08c379a000000000000000000000000000000000000000000000000000000000815260040161127a90611f9b565b60405180910390fd5b80600160008481526020019081526020016000208190555060016008600084815260200190815260200160002060006101000a81548160ff0219169083151502179055506001600b60003373ffffffffffffffffffffffffffffffffffffffff1673ffffffffffffffffffffffffffffffffffffffff16815260200190815260200160002060006101000a81548160ff021916908315150217905550505050505050565b6005600083815260200190815260200160002060009054906101000a900473ffffffffffffffffffffffffffffffffffffffff1673ffffffffffffffffffffffffffffffffffffffff163373ffffffffffffffffffffffffffffffffffffffff16146113c8576040517f08c379a00000000000000000000000000000000000000000000000000000000081526004016113bf90611cc7565b60405180910390fd5b8060036000848152602001908152602001600020819055505050565b6000806001868686866040516000815260200160405260405161140a9493929190612100565b6020604051602081039080840390855afa15801561142c573d6000803e3d6000fd5b5050506020604051035190508673ffffffffffffffffffffffffffffffffffffffff168173ffffffffffffffffffffffffffffffffffffffff161491505095945050505050565b82805461147f906120b0565b90600052602060002090601f0160209004810192826114a157600085556114e8565b82601f106114ba57805160ff19168380011785556114e8565b828001600101855582156114e8579182015b828111156114e75782518255916020019190600101906114cc565b5b5090506114f591906114f9565b5090565b5b808211156115125760008160009055506001016114fa565b5090565b6000604051905090565b600080fd5b600080fd5b6000819050919050565b61153d8161152a565b811461154857600080fd5b50565b60008135905061155a81611534565b92915050565b60006020828403121561157657611575611520565b5b60006115848482850161154b565b91505092915050565b6000819050919050565b6115a08161158d565b81146115ab57600080fd5b50565b6000813590506115bd81611597565b92915050565b600060ff82169050919050565b6115d9816115c3565b81146115e457600080fd5b50565b6000813590506115f6816115d0565b92915050565b6000806000806080858703121561161657611615611520565b5b6000611624878288016115ae565b9450506020611635878288016115ae565b9350506040611646878288016115ae565b9250506060611657878288016115e7565b91505092959194509250565b600073ffffffffffffffffffffffffffffffffffffffff82169050919050565b600061168e82611663565b9050919050565b61169e81611683565b81146116a957600080fd5b50565b6000813590506116bb81611695565b92915050565b600080600080600080600080610100898b0312156116e2576116e1611520565b5b60006116f08b828c016116ac565b98505060206117018b828c0161154b565b97505060406117128b828c0161154b565b96505060606117238b828c0161154b565b95505060806117348b828c016115ae565b94505060a06117458b828c016115ae565b93505060c06117568b828c016115ae565b92505060e06117678b828c016115e7565b9150509295985092959890939650565b60008060008060008060c0878903121561179457611793611520565b5b60006117a289828a0161154b565b96505060206117b389828a0161154b565b95505060406117c489828a016115ae565b94505060606117d589828a016115e7565b93505060806117e689828a016115ae565b92505060a06117f789828a016115ae565b9150509295509295509295565b600080fd5b600080fd5b6000601f19601f8301169050919050565b7f4e487b7100000000000000000000000000000000000000000000000000000000600052604160045260246000fd5b6118578261180e565b810181811067ffffffffffffffff821117156118765761187561181f565b5b80604052505050565b6000611889611516565b9050611895828261184e565b919050565b600067ffffffffffffffff8211156118b5576118b461181f565b5b6118be8261180e565b9050602081019050919050565b82818337600083830152505050565b60006118ed6118e88461189a565b61187f565b90508281526020810184848401111561190957611908611809565b5b6119148482856118cb565b509392505050565b600082601f83011261193157611930611804565b5b81356119418482602086016118da565b91505092915050565b60008060006060848603121561196357611962611520565b5b60006119718682870161154b565b935050602084013567ffffffffffffffff81111561199257611991611525565b5b61199e8682870161191c565b92505060406119af868287016116ac565b9150509250925092565b600081519050919050565b600082825260208201905092915050565b60005b838110156119f35780820151818401526020810190506119d8565b83811115611a02576000848401525b50505050565b6000611a13826119b9565b611a1d81856119c4565b9350611a2d8185602086016119d5565b611a368161180e565b840191505092915050565b60006020820190508181036000830152611a5b8184611a08565b905092915050565b60008060008060008060c08789031215611a8057611a7f611520565b5b6000611a8e89828a016115ae565b9650506020611a9f89828a016115e7565b9550506040611ab089828a016115ae565b9450506060611ac189828a016115ae565b9350506080611ad289828a0161154b565b92505060a0611ae389828a0161154b565b9150509295509295509295565b60008060408385031215611b0757611b06611520565b5b6000611b158582860161154b565b9250506020611b268582860161154b565b9150509250929050565b7f526964652068617320737461727465642c20796f752063616e27742063616e6360008201527f656c206974000000000000000000000000000000000000000000000000000000602082015250565b6000611b8c6025836119c4565b9150611b9782611b30565b604082019050919050565b60006020820190508181036000830152611bbb81611b7f565b9050919050565b7f4e487b7100000000000000000000000000000000000000000000000000000000600052601160045260246000fd5b6000611bfc8261152a565b9150611c078361152a565b925082821015611c1a57611c19611bc2565b5b828203905092915050565b6000611c308261152a565b9150611c3b8361152a565b9250827fffffffffffffffffffffffffffffffffffffffffffffffffffffffffffffffff03821115611c7057611c6f611bc2565b5b828201905092915050565b7f594f5520415245204e4f5420544845204f574e45520000000000000000000000600082015250565b6000611cb16015836119c4565b9150611cbc82611c7b565b602082019050919050565b60006020820190508181036000830152611ce081611ca4565b9050919050565b7f43414e54205749544844524157205748454e2052454e5445522049532053544960008201527f4c4c2044524956494e4700000000000000000000000000000000000000000000602082015250565b6000611d43602a836119c4565b9150611d4e82611ce7565b604082019050919050565b60006020820190508181036000830152611d7281611d36565b9050919050565b7f594f5520415245204e4f54205448452052454e54455200000000000000000000600082015250565b6000611daf6016836119c4565b9150611dba82611d79565b602082019050919050565b60006020820190508181036000830152611dde81611da2565b9050919050565b7f4e6f7420656e6f7567682045746865722070726f76696465642061732064657060008201527f6f73697400000000000000000000000000000000000000000000000000000000602082015250565b6000611e416024836119c4565b9150611e4c82611de5565b604082019050919050565b60006020820190508181036000830152611e7081611e34565b9050919050565b7f4e4f54205349474e454420425920534552564943452050524f56494445520000600082015250565b6000611ead601e836119c4565b9150611eb882611e77565b602082019050919050565b60006020820190508181036000830152611edc81611ea0565b9050919050565b7f594f5520415245204e4f54205448452043555252454e542052454e5445520000600082015250565b6000611f19601e836119c4565b9150611f2482611ee3565b602082019050919050565b60006020820190508181036000830152611f4881611f0c565b9050919050565b7f54494d4520574153204e4f54205349474e454420425920544845204341520000600082015250565b6000611f85601e836119c4565b9150611f9082611f4f565b602082019050919050565b60006020820190508181036000830152611fb481611f78565b9050919050565b6000611fc68261152a565b9150611fd18361152a565b9250817fffffffffffffffffffffffffffffffffffffffffffffffffffffffffffffffff048311821515161561200a57612009611bc2565b5b828202905092915050565b7f4341522049532055534544000000000000000000000000000000000000000000600082015250565b600061204b600b836119c4565b915061205682612015565b602082019050919050565b6000602082019050818103600083015261207a8161203e565b9050919050565b7f4e487b7100000000000000000000000000000000000000000000000000000000600052602260045260246000fd5b600060028204905060018216806120c857607f821691505b602082108114156120dc576120db612081565b5b50919050565b6120eb8161158d565b82525050565b6120fa816115c3565b82525050565b600060808201905061211560008301876120e2565b61212260208301866120f1565b61212f60408301856120e2565b61213c60608301846120e2565b9594505050505056fea2646970667358221220c8fff62b302729117d8124c4a87eb85669b33df14aa891e69ab3c5ce73b5568464736f6c63430008090033",
  "immutableReferences": {},
  "source": "// SPDX-License-Identifier: MIT\npragma solidity ^0.8.9;\n\ncontract CarGo {\n    uint256 constant DEPOSIT = 0.0001 ether;\n    uint256 constant PENALTY = 0.00001 ether;\n    address constant SERVICE_PROVIDER =//0xfe0738A845DCEc5166378e1b4a735709DF57e0e3;\n        0xd187E168bb36C41d767435Eb61E45ba08E29fC86;\n\n    mapping(uint256 => uint256) carBalance;\n    mapping(uint256 => uint256) startTime;\n    mapping(uint256 => uint256) carPrice;\n    mapping(uint256 => uint256) extraTime;\n    mapping(uint256 => uint256) extraTimeCharge;\n    mapping(uint256 => address) carOwner;\n    mapping(uint256 => address) carRenter; \n    mapping(uint256 => address) carAdress;\n    mapping(uint256 => bool) carOccupied;\n    mapping(uint256 => string) accessToken;\n\n    // retner attributes\n    mapping(address => uint256) renterBalance;\n    mapping(address => bool) renterOccupied;\n\n    modifier checkDeposit() {\n        require(msg.value >= DEPOSIT, \"Not enough Ether provided as deposit\");\n        _;\n    }\n\n    function isSignatureValid(\n        address _address,\n        bytes32 _hash,\n        uint8 _v,\n        bytes32 _r,\n        bytes32 _s\n    ) private pure returns (bool) {\n        address _signer = ecrecover(_hash, _v, _r, _s);\n        return (_signer == _address);\n    }\n\n    function registerCar(\n        address _carAdress,\n        uint256 _carID,\n        uint256 _price,\n        uint256 _extraPrice,\n        bytes32 _hash,\n        bytes32 _r,\n        bytes32 _s,\n        uint8 _v\n    ) external payable checkDeposit {\n        require(\n            isSignatureValid(SERVICE_PROVIDER, _hash, _v, _r, _s),\n            \"NOT SIGNED BY SERVICE PROVIDER\"\n        );\n        carBalance[_carID] = msg.value;\n        carOwner[_carID] = msg.sender;\n        carPrice[_carID] = _price;\n        extraTimeCharge[_carID] = _extraPrice;\n        carOccupied[_carID] = false;\n        carAdress[_carID] = _carAdress;\n    }\n\n    // Register retner on-chain\n    function registerRenter(\n        bytes32 _hash,\n        bytes32 _r,\n        bytes32 _s,\n        uint8 _v\n    ) external payable checkDeposit {\n        require(\n            isSignatureValid(SERVICE_PROVIDER, _hash, _v, _r, _s),\n            \"NOT SIGNED BY SERVICE PROVIDER\"\n        );\n        renterBalance[msg.sender] = msg.value;\n    }\n\n    function setAccessToken(\n        uint256 _carID,\n        string memory _cid,\n        address _renter\n    ) external {\n        require(carOccupied[_carID] == false, \"CAR IS USED\");\n        require(msg.sender == carOwner[_carID], \"YOU ARE NOT THE OWNER\");\n        accessToken[_carID] = _cid;\n        carRenter[_carID] = _renter;\n    }\n\n    function getAccessToken(uint256 _carID)\n        external\n        view\n        returns (string memory)\n    {\n        return accessToken[_carID];\n    }\n\n    function beginBooking(\n        bytes32 _hash,\n        uint8 _v,\n        bytes32 _r,\n        bytes32 _s,\n        uint256 _carID,\n        uint256 _beginTime\n    ) external {\n        require(msg.sender == carRenter[_carID], \"YOU ARE NOT THE RENTER\");\n        require(\n            isSignatureValid(carAdress[_carID], _hash, _v, _r, _s),\n            \"TIME WAS NOT SIGNED BY THE CAR\"\n        );\n        startTime[_carID] = _beginTime;\n        carOccupied[_carID] = true;\n        renterOccupied[msg.sender] = true;\n    }\n\n    function setExtraTime(uint256 _carID, uint256 _extraTime) external {\n        require(msg.sender == carOwner[_carID], \"YOU ARE NOT THE OWNER\");\n        extraTime[_carID] = _extraTime;\n    }\n\n    function endBooking(\n        uint256 _carID,\n        uint256 _endTime,\n        bytes32 _hash,\n        uint8 _v,\n        bytes32 _r,\n        bytes32 _s\n    ) external {\n        require(\n            msg.sender == carRenter[_carID],\n            \"YOU ARE NOT THE CURRENT RENTER\"\n        );\n        require(\n            isSignatureValid(carAdress[_carID], _hash, _v, _r, _s),\n            \"TIME WAS NOT SIGNED BY THE CAR\"\n        );\n\n        uint256 fee = carPrice[_carID] * (_endTime - startTime[_carID]);\n\n        if (extraTime[_carID] > 0) {\n            fee += extraTime[_carID] * extraTimeCharge[_carID];\n        }\n\n        carBalance[_carID] += fee;\n        carOccupied[_carID] = false;\n        renterBalance[msg.sender] -= fee;\n        renterOccupied[msg.sender] = false;\n    }\n\n    function cancelBooking(uint256 _carID) external {\n        if (msg.sender == carOwner[_carID]) {\n            require(\n                startTime[_carID] <= 0,\n                \"Ride has started, you can't cancel it\"\n            );\n            carRenter[_carID] = address(0);\n            accessToken[_carID] = \"\";\n        } else if (msg.sender == carRenter[_carID]) {\n            if (startTime[_carID] > 0) {\n                renterBalance[msg.sender] -= PENALTY;\n                uint256 fee = renterBalance[msg.sender] - PENALTY;\n                carBalance[_carID] += fee;\n                carOccupied[_carID] = false;\n                renterOccupied[msg.sender] = false;\n            } else {\n                carRenter[_carID] = address(0);\n                accessToken[_carID] = \"\";\n            }\n        }\n    }\n\n    function withdrawMoneyToOwner(uint256 _carID) external {\n        require(msg.sender == carOwner[_carID], \"YOU ARE NOT THE OWNER\");\n        require(carOccupied[_carID] == false, \"CANT WITHDRAW WHEN RENTER IS STILL DRIVING\");\n\n        uint256 _amount = carBalance[_carID];\n        carBalance[_carID] = 0;\n        address _to = carOwner[_carID];\n\n        payable(_to).transfer(_amount);\n    }\n\n    function withdrawMoneyToRenter(uint256 _carID) external {\n        require(msg.sender == carRenter[_carID], \"YOU ARE NOT THE RENTER\");\n        require(\n            renterOccupied[msg.sender] == false,\n            \"CANT WITHDRAW WHEN RENTER IS STILL DRIVING\"\n        );\n        uint256 _amount = renterBalance[msg.sender];\n        renterBalance[msg.sender] = 0;\n        payable(msg.sender).transfer(_amount);\n    }\n}",
  "sourcePath": "/home/aris/Desktop/decentalised-car-sharing-system/truffle/contracts/CarGo.sol",
  "compiler": {
    "name": "solc",
    "version": "0.8.9+commit.e5eed63a.Emscripten.clang"
  },
  "schemaVersion": "3.4.7",
  "updatedAt": "2022-05-14T13:44:46.067Z",
  "networkType": "ethereum",
  "devdoc": {
    "kind": "dev",
    "methods": {},
    "version": 1
  },
  "userdoc": {
    "kind": "user",
    "methods": {},
    "version": 1
  }
}