{
  "contractName": "CarGo",
  "abi": [
    {
      "inputs": [
        {
          "internalType": "address",
          "name": "_carAdress",
          "type": "address"
        },
        {
          "internalType": "uint256",
          "name": "_carID",
          "type": "uint256"
        },
        {
          "internalType": "uint256",
          "name": "_price",
          "type": "uint256"
        },
        {
          "internalType": "uint256",
          "name": "_extraPrice",
          "type": "uint256"
        },
        {
          "internalType": "bytes32",
          "name": "_hash",
          "type": "bytes32"
        },
        {
          "internalType": "bytes32",
          "name": "_r",
          "type": "bytes32"
        },
        {
          "internalType": "bytes32",
          "name": "_s",
          "type": "bytes32"
        },
        {
          "internalType": "uint8",
          "name": "_v",
          "type": "uint8"
        }
      ],
      "name": "registerCar",
      "outputs": [],
      "stateMutability": "payable",
      "type": "function",
      "payable": true
    },
    {
      "inputs": [
        {
          "internalType": "bytes32",
          "name": "_hash",
          "type": "bytes32"
        },
        {
          "internalType": "bytes32",
          "name": "_r",
          "type": "bytes32"
        },
        {
          "internalType": "bytes32",
          "name": "_s",
          "type": "bytes32"
        },
        {
          "internalType": "uint8",
          "name": "_v",
          "type": "uint8"
        }
      ],
      "name": "registerRenter",
      "outputs": [],
      "stateMutability": "payable",
      "type": "function",
      "payable": true
    },
    {
      "inputs": [
        {
          "internalType": "uint256",
          "name": "_carID",
          "type": "uint256"
        },
        {
          "internalType": "string",
          "name": "_encryptedBD",
          "type": "string"
        },
        {
          "internalType": "address",
          "name": "_renter",
          "type": "address"
        }
      ],
      "name": "setAccessToken",
      "outputs": [],
      "stateMutability": "nonpayable",
      "type": "function"
    },
    {
      "inputs": [
        {
          "internalType": "uint256",
          "name": "_carID",
          "type": "uint256"
        }
      ],
      "name": "getAccessToken",
      "outputs": [
        {
          "internalType": "string",
          "name": "",
          "type": "string"
        }
      ],
      "stateMutability": "view",
      "type": "function",
      "constant": true
    },
    {
      "inputs": [
        {
          "internalType": "bytes32",
          "name": "_hash",
          "type": "bytes32"
        },
        {
          "internalType": "uint8",
          "name": "_v",
          "type": "uint8"
        },
        {
          "internalType": "bytes32",
          "name": "_r",
          "type": "bytes32"
        },
        {
          "internalType": "bytes32",
          "name": "_s",
          "type": "bytes32"
        },
        {
          "internalType": "uint256",
          "name": "_carID",
          "type": "uint256"
        },
        {
          "internalType": "uint256",
          "name": "_beginTime",
          "type": "uint256"
        }
      ],
      "name": "beginBooking",
      "outputs": [],
      "stateMutability": "nonpayable",
      "type": "function"
    },
    {
      "inputs": [
        {
          "internalType": "uint256",
          "name": "_carID",
          "type": "uint256"
        },
        {
          "internalType": "uint256",
          "name": "_extraTime",
          "type": "uint256"
        }
      ],
      "name": "setExtraTime",
      "outputs": [],
      "stateMutability": "nonpayable",
      "type": "function"
    },
    {
      "inputs": [
        {
          "internalType": "uint256",
          "name": "_carID",
          "type": "uint256"
        },
        {
          "internalType": "uint256",
          "name": "_endTime",
          "type": "uint256"
        },
        {
          "internalType": "bytes32",
          "name": "_hash",
          "type": "bytes32"
        },
        {
          "internalType": "uint8",
          "name": "_v",
          "type": "uint8"
        },
        {
          "internalType": "bytes32",
          "name": "_r",
          "type": "bytes32"
        },
        {
          "internalType": "bytes32",
          "name": "_s",
          "type": "bytes32"
        }
      ],
      "name": "endBooking",
      "outputs": [],
      "stateMutability": "nonpayable",
      "type": "function"
    },
    {
      "inputs": [
        {
          "internalType": "uint256",
          "name": "_carID",
          "type": "uint256"
        }
      ],
      "name": "cancelBooking",
      "outputs": [],
      "stateMutability": "nonpayable",
      "type": "function"
    },
    {
      "inputs": [
        {
          "internalType": "uint256",
          "name": "_carID",
          "type": "uint256"
        }
      ],
      "name": "withdrawMoneyToOwner",
      "outputs": [],
      "stateMutability": "nonpayable",
      "type": "function"
    },
    {
      "inputs": [],
      "name": "withdrawMoneyToRenter",
      "outputs": [],
      "stateMutability": "nonpayable",
      "type": "function"
    },
    {
      "inputs": [],
      "name": "getMoney",
      "outputs": [
        {
          "internalType": "uint256",
          "name": "",
          "type": "uint256"
        }
      ],
      "stateMutability": "view",
      "type": "function",
      "constant": true
    }
  ],
  "bytecode": "0x608060405234801561001057600080fd5b506121d0806100206000396000f3fe60806040526004361061009c5760003560e01c806367eb83251161006457806367eb8325146101425780638d115f491461016b57806398e1b41014610194578063991acf6e146101bf578063b8a2d97f146101fc578063dc21af29146102255761009c565b80630dca825e146100a157806316b8880e146100ca5780632923cc98146100f35780634e5a82011461010a57806358b861eb14610126575b600080fd5b3480156100ad57600080fd5b506100c860048036038101906100c3919061158b565b61024e565b005b3480156100d657600080fd5b506100f160048036038101906100ec919061158b565b610612565b005b3480156100ff57600080fd5b50610108610797565b005b610124600480360381019061011f9190611627565b6108fd565b005b610140600480360381019061013b91906116ec565b610a48565b005b34801561014e57600080fd5b50610169600480360381019061016491906117a2565b610c3e565b005b34801561017757600080fd5b50610192600480360381019061018d9190611975565b610f07565b005b3480156101a057600080fd5b506101a961108e565b6040516101b691906119f3565b60405180910390f35b3480156101cb57600080fd5b506101e660048036038101906101e1919061158b565b6110e9565b6040516101f39190611a96565b60405180910390f35b34801561020857600080fd5b50610223600480360381019061021e9190611ab8565b61118e565b005b34801561023157600080fd5b5061024c60048036038101906102479190611b45565b611352565b005b6005600082815260200190815260200160002060009054906101000a900473ffffffffffffffffffffffffffffffffffffffff1673ffffffffffffffffffffffffffffffffffffffff163373ffffffffffffffffffffffffffffffffffffffff16141561039b5760006001600083815260200190815260200160002054111561030c576040517f08c379a000000000000000000000000000000000000000000000000000000000815260040161030390611bf7565b60405180910390fd5b60006006600083815260200190815260200160002060006101000a81548173ffffffffffffffffffffffffffffffffffffffff021916908373ffffffffffffffffffffffffffffffffffffffff1602179055506040518060200160405280600081525060096000838152602001908152602001600020908051906020019061039592919061149e565b5061060f565b6006600082815260200190815260200160002060009054906101000a900473ffffffffffffffffffffffffffffffffffffffff1673ffffffffffffffffffffffffffffffffffffffff163373ffffffffffffffffffffffffffffffffffffffff16141561060e57600060016000838152602001908152602001600020541115610582576509184e72a000600b60003373ffffffffffffffffffffffffffffffffffffffff1673ffffffffffffffffffffffffffffffffffffffff16815260200190815260200160002060008282546104739190611c46565b9250508190555060006509184e72a000600b60003373ffffffffffffffffffffffffffffffffffffffff1673ffffffffffffffffffffffffffffffffffffffff168152602001908152602001600020546104cd9190611c46565b90508060008084815260200190815260200160002060008282546104f19190611c7a565b9250508190555060006008600084815260200190815260200160002060006101000a81548160ff0219169083151502179055506000600d60003373ffffffffffffffffffffffffffffffffffffffff1673ffffffffffffffffffffffffffffffffffffffff16815260200190815260200160002060006101000a81548160ff0219169083151502179055505061060d565b60006006600083815260200190815260200160002060006101000a81548173ffffffffffffffffffffffffffffffffffffffff021916908373ffffffffffffffffffffffffffffffffffffffff1602179055506040518060200160405280600081525060096000838152602001908152602001600020908051906020019061060b92919061149e565b505b5b5b50565b6005600082815260200190815260200160002060009054906101000a900473ffffffffffffffffffffffffffffffffffffffff1673ffffffffffffffffffffffffffffffffffffffff163373ffffffffffffffffffffffffffffffffffffffff16146106b3576040517f08c379a00000000000000000000000000000000000000000000000000000000081526004016106aa90611d1c565b60405180910390fd5b600015156008600083815260200190815260200160002060009054906101000a900460ff161515146106e457600080fd5b600080600083815260200190815260200160002054905060008060008481526020019081526020016000208190555060006005600084815260200190815260200160002060009054906101000a900473ffffffffffffffffffffffffffffffffffffffff1690508073ffffffffffffffffffffffffffffffffffffffff166108fc839081150290604051600060405180830381858888f19350505050158015610791573d6000803e3d6000fd5b50505050565b60001515600d60003373ffffffffffffffffffffffffffffffffffffffff1673ffffffffffffffffffffffffffffffffffffffff16815260200190815260200160002060009054906101000a900460ff1615151461082a576040517f08c379a000000000000000000000000000000000000000000000000000000000815260040161082190611dae565b60405180910390fd5b6000600b60003373ffffffffffffffffffffffffffffffffffffffff1673ffffffffffffffffffffffffffffffffffffffff1681526020019081526020016000205490506000600b60003373ffffffffffffffffffffffffffffffffffffffff1673ffffffffffffffffffffffffffffffffffffffff168152602001908152602001600020819055503373ffffffffffffffffffffffffffffffffffffffff166108fc829081150290604051600060405180830381858888f193505050501580156108f9573d6000803e3d6000fd5b5050565b655af3107a4000341015610946576040517f08c379a000000000000000000000000000000000000000000000000000000000815260040161093d90611e40565b60405180910390fd5b61096773d187e168bb36c41d767435eb61e45ba08e29fc868583868661140f565b6109a6576040517f08c379a000000000000000000000000000000000000000000000000000000000815260040161099d90611eac565b60405180910390fd5b34600b60003373ffffffffffffffffffffffffffffffffffffffff1673ffffffffffffffffffffffffffffffffffffffff168152602001908152602001600020819055506001600c60003373ffffffffffffffffffffffffffffffffffffffff1673ffffffffffffffffffffffffffffffffffffffff16815260200190815260200160002060006101000a81548160ff02191690831515021790555050505050565b655af3107a4000341015610a91576040517f08c379a0000000000000000000000000000000000000000000000000000000008152600401610a8890611e40565b60405180910390fd5b610ab273d187e168bb36c41d767435eb61e45ba08e29fc868583868661140f565b610af1576040517f08c379a0000000000000000000000000000000000000000000000000000000008152600401610ae890611eac565b60405180910390fd5b3460008089815260200190815260200160002081905550336005600089815260200190815260200160002060006101000a81548173ffffffffffffffffffffffffffffffffffffffff021916908373ffffffffffffffffffffffffffffffffffffffff1602179055508560026000898152602001908152602001600020819055506001600a600089815260200190815260200160002060006101000a81548160ff02191690831515021790555084600460008981526020019081526020016000208190555060006008600089815260200190815260200160002060006101000a81548160ff021916908315150217905550876007600089815260200190815260200160002060006101000a81548173ffffffffffffffffffffffffffffffffffffffff021916908373ffffffffffffffffffffffffffffffffffffffff1602179055505050505050505050565b6006600087815260200190815260200160002060009054906101000a900473ffffffffffffffffffffffffffffffffffffffff1673ffffffffffffffffffffffffffffffffffffffff163373ffffffffffffffffffffffffffffffffffffffff1614610cdf576040517f08c379a0000000000000000000000000000000000000000000000000000000008152600401610cd690611f18565b60405180910390fd5b610d1f6007600088815260200190815260200160002060009054906101000a900473ffffffffffffffffffffffffffffffffffffffff168585858561140f565b610d5e576040517f08c379a0000000000000000000000000000000000000000000000000000000008152600401610d5590611f84565b60405180910390fd5b6000856001600089815260200190815260200160002054610d7f9190611c46565b6002600089815260200190815260200160002054610d9d9190611fa4565b9050600060036000898152602001908152602001600020541115610dfb5760046000888152602001908152602001600020546003600089815260200190815260200160002054610ded9190611fa4565b81610df89190611c7a565b90505b806000808981526020019081526020016000206000828254610e1d9190611c7a565b9250508190555060006008600089815260200190815260200160002060006101000a81548160ff02191690831515021790555080600b60003373ffffffffffffffffffffffffffffffffffffffff1673ffffffffffffffffffffffffffffffffffffffff1681526020019081526020016000206000828254610e9f9190611c46565b925050819055506000600d60003373ffffffffffffffffffffffffffffffffffffffff1673ffffffffffffffffffffffffffffffffffffffff16815260200190815260200160002060006101000a81548160ff02191690831515021790555050505050505050565b600015156008600085815260200190815260200160002060009054906101000a900460ff16151514610f6e576040517f08c379a0000000000000000000000000000000000000000000000000000000008152600401610f659061204a565b60405180910390fd5b6005600084815260200190815260200160002060009054906101000a900473ffffffffffffffffffffffffffffffffffffffff1673ffffffffffffffffffffffffffffffffffffffff163373ffffffffffffffffffffffffffffffffffffffff161461100f576040517f08c379a000000000000000000000000000000000000000000000000000000000815260040161100690611d1c565b60405180910390fd5b8160096000858152602001908152602001600020908051906020019061103692919061149e565b50806006600085815260200190815260200160002060006101000a81548173ffffffffffffffffffffffffffffffffffffffff021916908373ffffffffffffffffffffffffffffffffffffffff160217905550505050565b6000600b600073cbf417cc27683fee9b6c54f36dc4dd80472d5c3b73ffffffffffffffffffffffffffffffffffffffff1673ffffffffffffffffffffffffffffffffffffffff16815260200190815260200160002054905090565b606060096000838152602001908152602001600020805461110990612099565b80601f016020809104026020016040519081016040528092919081815260200182805461113590612099565b80156111825780601f1061115757610100808354040283529160200191611182565b820191906000526020600020905b81548152906001019060200180831161116557829003601f168201915b50505050509050919050565b6006600083815260200190815260200160002060009054906101000a900473ffffffffffffffffffffffffffffffffffffffff1673ffffffffffffffffffffffffffffffffffffffff163373ffffffffffffffffffffffffffffffffffffffff161461122f576040517f08c379a000000000000000000000000000000000000000000000000000000000815260040161122690612117565b60405180910390fd5b61126f6007600084815260200190815260200160002060009054906101000a900473ffffffffffffffffffffffffffffffffffffffff168787878761140f565b6112ae576040517f08c379a00000000000000000000000000000000000000000000000000000000081526004016112a590611f84565b60405180910390fd5b80600160008481526020019081526020016000208190555060016008600084815260200190815260200160002060006101000a81548160ff0219169083151502179055506001600d60003373ffffffffffffffffffffffffffffffffffffffff1673ffffffffffffffffffffffffffffffffffffffff16815260200190815260200160002060006101000a81548160ff021916908315150217905550505050505050565b6005600083815260200190815260200160002060009054906101000a900473ffffffffffffffffffffffffffffffffffffffff1673ffffffffffffffffffffffffffffffffffffffff163373ffffffffffffffffffffffffffffffffffffffff16146113f3576040517f08c379a00000000000000000000000000000000000000000000000000000000081526004016113ea90611d1c565b60405180910390fd5b8060036000848152602001908152602001600020819055505050565b600080600186868686604051600081526020016040526040516114359493929190612155565b6020604051602081039080840390855afa158015611457573d6000803e3d6000fd5b5050506020604051035190508673ffffffffffffffffffffffffffffffffffffffff168173ffffffffffffffffffffffffffffffffffffffff161491505095945050505050565b8280546114aa90612099565b90600052602060002090601f0160209004810192826114cc5760008555611513565b82601f106114e557805160ff1916838001178555611513565b82800160010185558215611513579182015b828111156115125782518255916020019190600101906114f7565b5b5090506115209190611524565b5090565b5b8082111561153d576000816000905550600101611525565b5090565b6000604051905090565b600080fd5b600080fd5b6000819050919050565b61156881611555565b811461157357600080fd5b50565b6000813590506115858161155f565b92915050565b6000602082840312156115a1576115a061154b565b5b60006115af84828501611576565b91505092915050565b6000819050919050565b6115cb816115b8565b81146115d657600080fd5b50565b6000813590506115e8816115c2565b92915050565b600060ff82169050919050565b611604816115ee565b811461160f57600080fd5b50565b600081359050611621816115fb565b92915050565b600080600080608085870312156116415761164061154b565b5b600061164f878288016115d9565b9450506020611660878288016115d9565b9350506040611671878288016115d9565b925050606061168287828801611612565b91505092959194509250565b600073ffffffffffffffffffffffffffffffffffffffff82169050919050565b60006116b98261168e565b9050919050565b6116c9816116ae565b81146116d457600080fd5b50565b6000813590506116e6816116c0565b92915050565b600080600080600080600080610100898b03121561170d5761170c61154b565b5b600061171b8b828c016116d7565b985050602061172c8b828c01611576565b975050604061173d8b828c01611576565b965050606061174e8b828c01611576565b955050608061175f8b828c016115d9565b94505060a06117708b828c016115d9565b93505060c06117818b828c016115d9565b92505060e06117928b828c01611612565b9150509295985092959890939650565b60008060008060008060c087890312156117bf576117be61154b565b5b60006117cd89828a01611576565b96505060206117de89828a01611576565b95505060406117ef89828a016115d9565b945050606061180089828a01611612565b935050608061181189828a016115d9565b92505060a061182289828a016115d9565b9150509295509295509295565b600080fd5b600080fd5b6000601f19601f8301169050919050565b7f4e487b7100000000000000000000000000000000000000000000000000000000600052604160045260246000fd5b61188282611839565b810181811067ffffffffffffffff821117156118a1576118a061184a565b5b80604052505050565b60006118b4611541565b90506118c08282611879565b919050565b600067ffffffffffffffff8211156118e0576118df61184a565b5b6118e982611839565b9050602081019050919050565b82818337600083830152505050565b6000611918611913846118c5565b6118aa565b90508281526020810184848401111561193457611933611834565b5b61193f8482856118f6565b509392505050565b600082601f83011261195c5761195b61182f565b5b813561196c848260208601611905565b91505092915050565b60008060006060848603121561198e5761198d61154b565b5b600061199c86828701611576565b935050602084013567ffffffffffffffff8111156119bd576119bc611550565b5b6119c986828701611947565b92505060406119da868287016116d7565b9150509250925092565b6119ed81611555565b82525050565b6000602082019050611a0860008301846119e4565b92915050565b600081519050919050565b600082825260208201905092915050565b60005b83811015611a48578082015181840152602081019050611a2d565b83811115611a57576000848401525b50505050565b6000611a6882611a0e565b611a728185611a19565b9350611a82818560208601611a2a565b611a8b81611839565b840191505092915050565b60006020820190508181036000830152611ab08184611a5d565b905092915050565b60008060008060008060c08789031215611ad557611ad461154b565b5b6000611ae389828a016115d9565b9650506020611af489828a01611612565b9550506040611b0589828a016115d9565b9450506060611b1689828a016115d9565b9350506080611b2789828a01611576565b92505060a0611b3889828a01611576565b9150509295509295509295565b60008060408385031215611b5c57611b5b61154b565b5b6000611b6a85828601611576565b9250506020611b7b85828601611576565b9150509250929050565b7f526964652068617320737461727465642c20796f752063616e27742063616e6360008201527f656c206974000000000000000000000000000000000000000000000000000000602082015250565b6000611be1602583611a19565b9150611bec82611b85565b604082019050919050565b60006020820190508181036000830152611c1081611bd4565b9050919050565b7f4e487b7100000000000000000000000000000000000000000000000000000000600052601160045260246000fd5b6000611c5182611555565b9150611c5c83611555565b925082821015611c6f57611c6e611c17565b5b828203905092915050565b6000611c8582611555565b9150611c9083611555565b9250827fffffffffffffffffffffffffffffffffffffffffffffffffffffffffffffffff03821115611cc557611cc4611c17565b5b828201905092915050565b7f594f5520415245204e4f5420544845204f574e45520000000000000000000000600082015250565b6000611d06601583611a19565b9150611d1182611cd0565b602082019050919050565b60006020820190508181036000830152611d3581611cf9565b9050919050565b7f43414e54205749544844524157205748454e2052454e5445522049532053544960008201527f4c4c2044524956494e4700000000000000000000000000000000000000000000602082015250565b6000611d98602a83611a19565b9150611da382611d3c565b604082019050919050565b60006020820190508181036000830152611dc781611d8b565b9050919050565b7f4e6f7420656e6f7567682045746865722070726f76696465642061732064657060008201527f6f73697400000000000000000000000000000000000000000000000000000000602082015250565b6000611e2a602483611a19565b9150611e3582611dce565b604082019050919050565b60006020820190508181036000830152611e5981611e1d565b9050919050565b7f4e4f54205349474e454420425920534552564943452050524f56494445520000600082015250565b6000611e96601e83611a19565b9150611ea182611e60565b602082019050919050565b60006020820190508181036000830152611ec581611e89565b9050919050565b7f594f5520415245204e4f54205448452043555252454e542052454e5445520000600082015250565b6000611f02601e83611a19565b9150611f0d82611ecc565b602082019050919050565b60006020820190508181036000830152611f3181611ef5565b9050919050565b7f54494d4520574153204e4f54205349474e454420425920544845204341520000600082015250565b6000611f6e601e83611a19565b9150611f7982611f38565b602082019050919050565b60006020820190508181036000830152611f9d81611f61565b9050919050565b6000611faf82611555565b9150611fba83611555565b9250817fffffffffffffffffffffffffffffffffffffffffffffffffffffffffffffffff0483118215151615611ff357611ff2611c17565b5b828202905092915050565b7f4341522049532055534544000000000000000000000000000000000000000000600082015250565b6000612034600b83611a19565b915061203f82611ffe565b602082019050919050565b6000602082019050818103600083015261206381612027565b9050919050565b7f4e487b7100000000000000000000000000000000000000000000000000000000600052602260045260246000fd5b600060028204905060018216806120b157607f821691505b602082108114156120c5576120c461206a565b5b50919050565b7f594f5520415245204e4f54205448452052454e54455200000000000000000000600082015250565b6000612101601683611a19565b915061210c826120cb565b602082019050919050565b60006020820190508181036000830152612130816120f4565b9050919050565b612140816115b8565b82525050565b61214f816115ee565b82525050565b600060808201905061216a6000830187612137565b6121776020830186612146565b6121846040830185612137565b6121916060830184612137565b9594505050505056fea2646970667358221220500712fb32387b6a4cde131c9a827358781cf60642c1b745a95b31a8f4bd3b4164736f6c63430008090033",
  "immutableReferences": {},
  "source": "// SPDX-License-Identifier: MIT\npragma solidity ^0.8.9;\n\ncontract CarGo {\n    uint256 constant DEPOSIT = 0.0001 ether;\n    uint256 constant PENALTY = 0.00001 ether;\n    address constant SERVICE_PROVIDER =0xd187E168bb36C41d767435Eb61E45ba08E29fC86;\n        //0xd187E168bb36C41d767435Eb61E45ba08E29fC86;\n\n    mapping(uint256 => uint256) carBalance;\n    mapping(uint256 => uint256) startTime;\n    //mapping(uint256 => uint256) endTime;\n    mapping(uint256 => uint256) carPrice;\n    mapping(uint256 => uint256) extraTime;\n    mapping(uint256 => uint256) extraTimeCharge;\n    mapping(uint256 => address) carOwner;\n    mapping(uint256 => address) carRenter; // this links the renter with the car\n    mapping(uint256 => address) carAdress;\n    mapping(uint256 => bool) carOccupied;\n    mapping(uint256 => string) accessToken;\n    mapping(uint256 => bool) carRegistered;\n\n    // retner attributes\n    mapping(address => uint256) renterBalance;\n    mapping(address => bool) renterRegistered;\n    mapping(address => bool) renterOccupied;\n\n    // event RegisterCar(uint256 _carID, uint256 _price, uint256 _extraPrice);\n    // event RegisterRenter(address _address);\n    // event InitBooking(address _address);\n    // event EndBooking(address _address, uint256 _endTime);\n\n    modifier checkDeposit() {\n        require(msg.value >= DEPOSIT, \"Not enough Ether provided as deposit\");\n        _;\n    }\n\n    function isSignatureValid(\n        address _address,\n        bytes32 _hash,\n        uint8 _v,\n        bytes32 _r,\n        bytes32 _s\n    ) private pure returns (bool) {\n        address _signer = ecrecover(_hash, _v, _r, _s);\n        return (_signer == _address);\n    }\n\n    function registerCar(\n        address _carAdress,\n        uint256 _carID,\n        uint256 _price,\n        uint256 _extraPrice,\n        bytes32 _hash,\n        bytes32 _r,\n        bytes32 _s,\n        uint8 _v\n    ) external payable checkDeposit {\n        // require(\n        //     SERVICE_PROVIDER == ecrecover(_hash, _v, _r, _s),\n        //     \"NOT SIGNED BY SERVICE PROVIDER\"\n        // );\n        require(\n            isSignatureValid(SERVICE_PROVIDER, _hash, _v, _r, _s),\n            \"NOT SIGNED BY SERVICE PROVIDER\"\n        );\n        //require(carRegistered[_carID] == false, \"CAR IS ALREADY REGISTERED\");\n        carBalance[_carID] = msg.value;\n        carOwner[_carID] = msg.sender;\n        carPrice[_carID] = _price;\n        carRegistered[_carID] = true;\n        extraTimeCharge[_carID] = _extraPrice;\n        carOccupied[_carID] = false;\n        carAdress[_carID] = _carAdress;\n        //emit RegisterCar(_carID, _price, _extraPrice);\n    }\n\n    // Register retner on-chain\n    function registerRenter(\n        bytes32 _hash,\n        bytes32 _r,\n        bytes32 _s,\n        uint8 _v\n    ) external payable checkDeposit {\n        // require(\n        //     SERVICE_PROVIDER == ecrecover(_hash, _v, _r, _s),\n        //     \"NOT SIGNED BY SERVICE PROVIDER\"\n        // );\n        require(\n            isSignatureValid(SERVICE_PROVIDER, _hash, _v, _r, _s),\n            \"NOT SIGNED BY SERVICE PROVIDER\"\n        );\n        // require(\n        //     renterRegistered[msg.sender] == false,\n        //     \"RENTER IS ALREADY REGISTERED\"\n        // );\n        renterBalance[msg.sender] = msg.value;\n        renterRegistered[msg.sender] = true;\n        //emit RegisterRenter(msg.sender);\n    }\n\n    function setAccessToken(\n        uint256 _carID,\n        string memory _encryptedBD,\n        address _renter\n    ) external {\n        require(carOccupied[_carID] == false, \"CAR IS USED\");\n        require(msg.sender == carOwner[_carID], \"YOU ARE NOT THE OWNER\");\n        accessToken[_carID] = _encryptedBD;\n        carRenter[_carID] = _renter;\n    }\n\n    function getAccessToken(uint256 _carID)\n        external\n        view\n        returns (string memory)\n    {\n        return accessToken[_carID];\n    }\n\n    // Check that car is not in use, car signed the beginTime and that the correct driver\n    function beginBooking(\n        bytes32 _hash,\n        uint8 _v,\n        bytes32 _r,\n        bytes32 _s,\n        uint256 _carID,\n        uint256 _beginTime\n    ) external {\n        require(msg.sender == carRenter[_carID], \"YOU ARE NOT THE RENTER\");\n        require(\n            isSignatureValid(carAdress[_carID], _hash, _v, _r, _s),\n            \"TIME WAS NOT SIGNED BY THE CAR\"\n        );\n        startTime[_carID] = _beginTime;\n        carOccupied[_carID] = true;\n        renterOccupied[msg.sender] = true;\n    }\n\n    function setExtraTime(uint256 _carID, uint256 _extraTime) external {\n        require(msg.sender == carOwner[_carID], \"YOU ARE NOT THE OWNER\");\n        extraTime[_carID] = _extraTime;\n    }\n\n    function endBooking(\n        uint256 _carID,\n        uint256 _endTime,\n        bytes32 _hash,\n        uint8 _v,\n        bytes32 _r,\n        bytes32 _s\n    ) external {\n        require(\n            msg.sender == carRenter[_carID],\n            \"YOU ARE NOT THE CURRENT RENTER\"\n        );\n        require(\n            isSignatureValid(carAdress[_carID], _hash, _v, _r, _s),\n            \"TIME WAS NOT SIGNED BY THE CAR\"\n        );\n\n        uint256 fee = carPrice[_carID] * (startTime[_carID] - _endTime);\n\n        if (extraTime[_carID] > 0) {\n            fee += extraTime[_carID] * extraTimeCharge[_carID];\n        }\n\n        carBalance[_carID] += fee;\n        carOccupied[_carID] = false;\n        renterBalance[msg.sender] -= fee;\n        renterOccupied[msg.sender] = false;\n        //emit EndBooking(msg.sender, _endTime);\n    }\n\n    function cancelBooking(uint256 _carID) external {\n        if (msg.sender == carOwner[_carID]) {\n            require(\n                startTime[_carID] <= 0,\n                \"Ride has started, you can't cancel it\"\n            );\n            carRenter[_carID] = address(0);\n            accessToken[_carID] = \"\";\n        } else if (msg.sender == carRenter[_carID]) {\n            if (startTime[_carID] > 0) {\n                renterBalance[msg.sender] -= PENALTY;\n                uint256 fee = renterBalance[msg.sender] - PENALTY;\n                carBalance[_carID] += fee;\n                carOccupied[_carID] = false;\n                renterOccupied[msg.sender] = false;\n            } else {\n                carRenter[_carID] = address(0);\n                accessToken[_carID] = \"\";\n            }\n        }\n    }\n\n    function withdrawMoneyToOwner(uint256 _carID) external {\n        require(msg.sender == carOwner[_carID], \"YOU ARE NOT THE OWNER\");\n        require(carOccupied[_carID] == false);\n\n        uint256 _amount = carBalance[_carID];\n        carBalance[_carID] = 0;\n        address _to = carOwner[_carID];\n\n        payable(_to).transfer(_amount);\n    }\n\n    function withdrawMoneyToRenter() external {\n        require(\n            renterOccupied[msg.sender] == false,\n            \"CANT WITHDRAW WHEN RENTER IS STILL DRIVING\"\n        );\n        uint256 _amount = renterBalance[msg.sender];\n        renterBalance[msg.sender] = 0;\n        payable(msg.sender).transfer(_amount);\n    }\n\n\n\n    function getMoney() external view returns (uint256) {\n        return renterBalance[0xcbf417cC27683fEe9B6C54F36DC4dD80472d5c3b];\n    }\n\n    // This function is used when the owner has withdrawed all the money but wants to rent the car again, so needs to deposit again money\n    // function sendDeposit(uint256 _carID)\n    //     public\n    //     payable\n    //     checkDeposit\n    // {\n    //     if (msg.sender == carOwner[_carID]) {\n    //         carBalance[_carID] = msg.value;\n    //     }\n    //     renterBalance[msg.sender] = msg.value;\n    //     renterRegistered[msg.sender] = true;\n    //     emit RegisterRenter(msg.sender);\n    // }\n}\n",
  "sourcePath": "/home/aris/Desktop/new/truffle/contracts/CarGo.sol",
  "compiler": {
    "name": "solc",
    "version": "0.8.9+commit.e5eed63a.Emscripten.clang"
  },
  "schemaVersion": "3.4.7",
  "updatedAt": "2022-05-04T07:03:01.343Z",
  "networkType": "ethereum",
  "devdoc": {
    "kind": "dev",
    "methods": {},
    "version": 1
  },
  "userdoc": {
    "kind": "user",
    "methods": {},
    "version": 1
  }
}