{
  "contractName": "CarGo",
  "abi": [
    {
      "inputs": [
        {
          "internalType": "address",
          "name": "_carAdress",
          "type": "address"
        },
        {
          "internalType": "uint256",
          "name": "_carID",
          "type": "uint256"
        },
        {
          "internalType": "uint256",
          "name": "_price",
          "type": "uint256"
        },
        {
          "internalType": "uint256",
          "name": "_extraPrice",
          "type": "uint256"
        },
        {
          "internalType": "bytes32",
          "name": "_hash",
          "type": "bytes32"
        },
        {
          "internalType": "bytes32",
          "name": "_r",
          "type": "bytes32"
        },
        {
          "internalType": "bytes32",
          "name": "_s",
          "type": "bytes32"
        },
        {
          "internalType": "uint8",
          "name": "_v",
          "type": "uint8"
        }
      ],
      "name": "registerCar",
      "outputs": [],
      "stateMutability": "payable",
      "type": "function",
      "payable": true
    },
    {
      "inputs": [
        {
          "internalType": "bytes32",
          "name": "_hash",
          "type": "bytes32"
        },
        {
          "internalType": "bytes32",
          "name": "_r",
          "type": "bytes32"
        },
        {
          "internalType": "bytes32",
          "name": "_s",
          "type": "bytes32"
        },
        {
          "internalType": "uint8",
          "name": "_v",
          "type": "uint8"
        }
      ],
      "name": "registerRenter",
      "outputs": [],
      "stateMutability": "payable",
      "type": "function",
      "payable": true
    },
    {
      "inputs": [
        {
          "internalType": "uint256",
          "name": "_carID",
          "type": "uint256"
        },
        {
          "internalType": "string",
          "name": "_cid",
          "type": "string"
        },
        {
          "internalType": "address",
          "name": "_renter",
          "type": "address"
        },
        {
          "internalType": "uint256",
          "name": "_maxBookTime",
          "type": "uint256"
        }
      ],
      "name": "setAccessToken",
      "outputs": [],
      "stateMutability": "nonpayable",
      "type": "function"
    },
    {
      "inputs": [
        {
          "internalType": "bytes32",
          "name": "_hash",
          "type": "bytes32"
        },
        {
          "internalType": "uint8",
          "name": "_v",
          "type": "uint8"
        },
        {
          "internalType": "bytes32",
          "name": "_r",
          "type": "bytes32"
        },
        {
          "internalType": "bytes32",
          "name": "_s",
          "type": "bytes32"
        },
        {
          "internalType": "uint256",
          "name": "_carID",
          "type": "uint256"
        },
        {
          "internalType": "uint256",
          "name": "_beginTime",
          "type": "uint256"
        }
      ],
      "name": "beginBooking",
      "outputs": [],
      "stateMutability": "nonpayable",
      "type": "function"
    },
    {
      "inputs": [
        {
          "internalType": "uint256",
          "name": "_carID",
          "type": "uint256"
        },
        {
          "internalType": "uint256",
          "name": "_extraTime",
          "type": "uint256"
        }
      ],
      "name": "setExtraTime",
      "outputs": [],
      "stateMutability": "nonpayable",
      "type": "function"
    },
    {
      "inputs": [
        {
          "internalType": "uint256",
          "name": "_carID",
          "type": "uint256"
        },
        {
          "internalType": "uint256",
          "name": "_endTime",
          "type": "uint256"
        },
        {
          "internalType": "bytes32",
          "name": "_hash",
          "type": "bytes32"
        },
        {
          "internalType": "uint8",
          "name": "_v",
          "type": "uint8"
        },
        {
          "internalType": "bytes32",
          "name": "_r",
          "type": "bytes32"
        },
        {
          "internalType": "bytes32",
          "name": "_s",
          "type": "bytes32"
        }
      ],
      "name": "endBooking",
      "outputs": [],
      "stateMutability": "nonpayable",
      "type": "function"
    },
    {
      "inputs": [
        {
          "internalType": "uint256",
          "name": "_carID",
          "type": "uint256"
        }
      ],
      "name": "cancelBooking",
      "outputs": [],
      "stateMutability": "nonpayable",
      "type": "function"
    },
    {
      "inputs": [
        {
          "internalType": "uint256",
          "name": "_carID",
          "type": "uint256"
        }
      ],
      "name": "forceEnding",
      "outputs": [],
      "stateMutability": "nonpayable",
      "type": "function"
    },
    {
      "inputs": [
        {
          "internalType": "uint256",
          "name": "_carID",
          "type": "uint256"
        }
      ],
      "name": "withdrawMoneyToOwner",
      "outputs": [],
      "stateMutability": "nonpayable",
      "type": "function"
    },
    {
      "inputs": [],
      "name": "withdrawMoneyToRenter",
      "outputs": [],
      "stateMutability": "nonpayable",
      "type": "function"
    },
    {
      "inputs": [
        {
          "internalType": "uint256",
          "name": "_carID",
          "type": "uint256"
        }
      ],
      "name": "getAccessToken",
      "outputs": [
        {
          "internalType": "string",
          "name": "",
          "type": "string"
        }
      ],
      "stateMutability": "view",
      "type": "function",
      "constant": true
    },
    {
      "inputs": [
        {
          "internalType": "uint256",
          "name": "_carID",
          "type": "uint256"
        }
      ],
      "name": "getCarOwner",
      "outputs": [
        {
          "internalType": "address",
          "name": "",
          "type": "address"
        }
      ],
      "stateMutability": "view",
      "type": "function",
      "constant": true
    },
    {
      "inputs": [
        {
          "internalType": "uint256",
          "name": "_carID",
          "type": "uint256"
        }
      ],
      "name": "getCarRenter",
      "outputs": [
        {
          "internalType": "address",
          "name": "",
          "type": "address"
        }
      ],
      "stateMutability": "view",
      "type": "function",
      "constant": true
    }
  ],
  "bytecode": "0x608060405234801561001057600080fd5b506123d0806100206000396000f3fe6080604052600436106100c25760003560e01c806367eb83251161007f578063a9d7c4dd11610059578063a9d7c4dd14610234578063b8a2d97f1461025d578063c3c7059114610286578063dc21af29146102c3576100c2565b806367eb8325146101a55780638f64c0ef146101ce578063991acf6e146101f7576100c2565b80630dca825e146100c757806316b8880e146100f05780632923cc981461011957806334ad2447146101305780634e5a82011461016d57806358b861eb14610189575b600080fd5b3480156100d357600080fd5b506100ee60048036038101906100e9919061170b565b6102ec565b005b3480156100fc57600080fd5b506101176004803603810190610112919061170b565b6104ad565b005b34801561012557600080fd5b5061012e610668565b005b34801561013c57600080fd5b506101576004803603810190610152919061170b565b6107d4565b6040516101649190611779565b60405180910390f35b61018760048036038101906101829190611803565b610811565b005b6101a3600480360381019061019e9190611896565b61095c565b005b3480156101b157600080fd5b506101cc60048036038101906101c7919061194c565b610b52565b005b3480156101da57600080fd5b506101f560048036038101906101f0919061170b565b610e47565b005b34801561020357600080fd5b5061021e6004803603810190610219919061170b565b610ff9565b60405161022b9190611a72565b60405180910390f35b34801561024057600080fd5b5061025b60048036038101906102569190611bc9565b61109e565b005b34801561026957600080fd5b50610284600480360381019061027f9190611c4c565b6112d1565b005b34801561029257600080fd5b506102ad60048036038101906102a8919061170b565b611495565b6040516102ba9190611779565b60405180910390f35b3480156102cf57600080fd5b506102ea60048036038101906102e59190611cd9565b6114d2565b005b600015156008600083815260200190815260200160002060009054906101000a900460ff16151514610353576040517f08c379a000000000000000000000000000000000000000000000000000000000815260040161034a90611d65565b60405180910390fd5b6006600082815260200190815260200160002060009054906101000a900473ffffffffffffffffffffffffffffffffffffffff1673ffffffffffffffffffffffffffffffffffffffff163373ffffffffffffffffffffffffffffffffffffffff16146103f4576040517f08c379a00000000000000000000000000000000000000000000000000000000081526004016103eb90611dd1565b60405180910390fd5b6040518060200160405280600081525060096000838152602001908152602001600020908051906020019061042a92919061161e565b5060006006600083815260200190815260200160002060006101000a81548173ffffffffffffffffffffffffffffffffffffffff021916908373ffffffffffffffffffffffffffffffffffffffff1602179055506000600a600083815260200190815260200160002060006101000a81548160ff02191690831515021790555050565b6005600082815260200190815260200160002060009054906101000a900473ffffffffffffffffffffffffffffffffffffffff1673ffffffffffffffffffffffffffffffffffffffff163373ffffffffffffffffffffffffffffffffffffffff161461054e576040517f08c379a000000000000000000000000000000000000000000000000000000000815260040161054590611e3d565b60405180910390fd5b600015156008600083815260200190815260200160002060009054906101000a900460ff161515146105b5576040517f08c379a00000000000000000000000000000000000000000000000000000000081526004016105ac90611ecf565b60405180910390fd5b600080600083815260200190815260200160002054905060008060008481526020019081526020016000208190555060006005600084815260200190815260200160002060009054906101000a900473ffffffffffffffffffffffffffffffffffffffff1690508073ffffffffffffffffffffffffffffffffffffffff166108fc839081150290604051600060405180830381858888f19350505050158015610662573d6000803e3d6000fd5b50505050565b60001515600d60003373ffffffffffffffffffffffffffffffffffffffff1673ffffffffffffffffffffffffffffffffffffffff16815260200190815260200160002060009054906101000a900460ff161515146106fb576040517f08c379a00000000000000000000000000000000000000000000000000000000081526004016106f290611ecf565b60405180910390fd5b6000600c60003373ffffffffffffffffffffffffffffffffffffffff1673ffffffffffffffffffffffffffffffffffffffff1681526020019081526020016000205490506000600c60003373ffffffffffffffffffffffffffffffffffffffff1673ffffffffffffffffffffffffffffffffffffffff1681526020019081526020016000208190555060003390508073ffffffffffffffffffffffffffffffffffffffff166108fc839081150290604051600060405180830381858888f193505050501580156107cf573d6000803e3d6000fd5b505050565b60006006600083815260200190815260200160002060009054906101000a900473ffffffffffffffffffffffffffffffffffffffff169050919050565b655af3107a400034101561085a576040517f08c379a000000000000000000000000000000000000000000000000000000000815260040161085190611f3b565b60405180910390fd5b61087b73fe0738a845dcec5166378e1b4a735709df57e0e38583868661158f565b6108ba576040517f08c379a00000000000000000000000000000000000000000000000000000000081526004016108b190611fcd565b60405180910390fd5b34600c60003373ffffffffffffffffffffffffffffffffffffffff1673ffffffffffffffffffffffffffffffffffffffff168152602001908152602001600020819055506000600d60003373ffffffffffffffffffffffffffffffffffffffff1673ffffffffffffffffffffffffffffffffffffffff16815260200190815260200160002060006101000a81548160ff02191690831515021790555050505050565b655af3107a40003410156109a5576040517f08c379a000000000000000000000000000000000000000000000000000000000815260040161099c90611f3b565b60405180910390fd5b6109c673fe0738a845dcec5166378e1b4a735709df57e0e38583868661158f565b610a05576040517f08c379a00000000000000000000000000000000000000000000000000000000081526004016109fc90611fcd565b60405180910390fd5b3460008089815260200190815260200160002081905550336005600089815260200190815260200160002060006101000a81548173ffffffffffffffffffffffffffffffffffffffff021916908373ffffffffffffffffffffffffffffffffffffffff16021790555085600260008981526020019081526020016000208190555084600460008981526020019081526020016000208190555060006008600089815260200190815260200160002060006101000a81548160ff0219169083151502179055506000600a600089815260200190815260200160002060006101000a81548160ff021916908315150217905550876007600089815260200190815260200160002060006101000a81548173ffffffffffffffffffffffffffffffffffffffff021916908373ffffffffffffffffffffffffffffffffffffffff1602179055505050505050505050565b6006600087815260200190815260200160002060009054906101000a900473ffffffffffffffffffffffffffffffffffffffff1673ffffffffffffffffffffffffffffffffffffffff163373ffffffffffffffffffffffffffffffffffffffff1614610bf3576040517f08c379a0000000000000000000000000000000000000000000000000000000008152600401610bea90612039565b60405180910390fd5b610c336007600088815260200190815260200160002060009054906101000a900473ffffffffffffffffffffffffffffffffffffffff168585858561158f565b610c72576040517f08c379a0000000000000000000000000000000000000000000000000000000008152600401610c69906120a5565b60405180910390fd5b6000600160008881526020019081526020016000205486610c9391906120f4565b6002600089815260200190815260200160002054610cb19190612128565b9050600060036000898152602001908152602001600020541115610d0f5760046000888152602001908152602001600020546003600089815260200190815260200160002054610d019190612128565b81610d0c9190612182565b90505b806000808981526020019081526020016000206000828254610d319190612182565b9250508190555060006008600089815260200190815260200160002060006101000a81548160ff0219169083151502179055506000600a600089815260200190815260200160002060006101000a81548160ff02191690831515021790555080600c60003373ffffffffffffffffffffffffffffffffffffffff1673ffffffffffffffffffffffffffffffffffffffff1681526020019081526020016000206000828254610ddf91906120f4565b925050819055506000600d60003373ffffffffffffffffffffffffffffffffffffffff1673ffffffffffffffffffffffffffffffffffffffff16815260200190815260200160002060006101000a81548160ff02191690831515021790555050505050505050565b6005600082815260200190815260200160002060009054906101000a900473ffffffffffffffffffffffffffffffffffffffff1673ffffffffffffffffffffffffffffffffffffffff163373ffffffffffffffffffffffffffffffffffffffff1614610ee8576040517f08c379a0000000000000000000000000000000000000000000000000000000008152600401610edf90611e3d565b60405180910390fd5b42600b6000838152602001908152602001600020546001600084815260200190815260200160002054610f1b9190612182565b10610f5b576040517f08c379a0000000000000000000000000000000000000000000000000000000008152600401610f529061224a565b60405180910390fd5b600c60006006600084815260200190815260200160002060009054906101000a900473ffffffffffffffffffffffffffffffffffffffff1673ffffffffffffffffffffffffffffffffffffffff1673ffffffffffffffffffffffffffffffffffffffff168152602001908152602001600020546000808381526020019081526020016000206000828254610fef9190612182565b9250508190555050565b606060096000838152602001908152602001600020805461101990612299565b80601f016020809104026020016040519081016040528092919081815260200182805461104590612299565b80156110925780601f1061106757610100808354040283529160200191611092565b820191906000526020600020905b81548152906001019060200180831161107557829003601f168201915b50505050509050919050565b600015156008600086815260200190815260200160002060009054906101000a900460ff16151514611105576040517f08c379a00000000000000000000000000000000000000000000000000000000081526004016110fc90611d65565b60405180910390fd5b6005600085815260200190815260200160002060009054906101000a900473ffffffffffffffffffffffffffffffffffffffff1673ffffffffffffffffffffffffffffffffffffffff163373ffffffffffffffffffffffffffffffffffffffff16146111a6576040517f08c379a000000000000000000000000000000000000000000000000000000000815260040161119d90611e3d565b60405180910390fd5b60001515600a600086815260200190815260200160002060009054906101000a900460ff1615151461120d576040517f08c379a000000000000000000000000000000000000000000000000000000000815260040161120490612317565b60405180910390fd5b8260096000868152602001908152602001600020908051906020019061123492919061161e565b50816006600086815260200190815260200160002060006101000a81548173ffffffffffffffffffffffffffffffffffffffff021916908373ffffffffffffffffffffffffffffffffffffffff1602179055506001600a600086815260200190815260200160002060006101000a81548160ff02191690831515021790555080600b60008681526020019081526020016000208190555050505050565b6006600083815260200190815260200160002060009054906101000a900473ffffffffffffffffffffffffffffffffffffffff1673ffffffffffffffffffffffffffffffffffffffff163373ffffffffffffffffffffffffffffffffffffffff1614611372576040517f08c379a000000000000000000000000000000000000000000000000000000000815260040161136990611dd1565b60405180910390fd5b6113b26007600084815260200190815260200160002060009054906101000a900473ffffffffffffffffffffffffffffffffffffffff168787878761158f565b6113f1576040517f08c379a00000000000000000000000000000000000000000000000000000000081526004016113e8906120a5565b60405180910390fd5b80600160008481526020019081526020016000208190555060016008600084815260200190815260200160002060006101000a81548160ff0219169083151502179055506001600d60003373ffffffffffffffffffffffffffffffffffffffff1673ffffffffffffffffffffffffffffffffffffffff16815260200190815260200160002060006101000a81548160ff021916908315150217905550505050505050565b60006005600083815260200190815260200160002060009054906101000a900473ffffffffffffffffffffffffffffffffffffffff169050919050565b6006600083815260200190815260200160002060009054906101000a900473ffffffffffffffffffffffffffffffffffffffff1673ffffffffffffffffffffffffffffffffffffffff163373ffffffffffffffffffffffffffffffffffffffff1614611573576040517f08c379a000000000000000000000000000000000000000000000000000000000815260040161156a90612039565b60405180910390fd5b8060036000848152602001908152602001600020819055505050565b600080600186868686604051600081526020016040526040516115b59493929190612355565b6020604051602081039080840390855afa1580156115d7573d6000803e3d6000fd5b5050506020604051035190508673ffffffffffffffffffffffffffffffffffffffff168173ffffffffffffffffffffffffffffffffffffffff161491505095945050505050565b82805461162a90612299565b90600052602060002090601f01602090048101928261164c5760008555611693565b82601f1061166557805160ff1916838001178555611693565b82800160010185558215611693579182015b82811115611692578251825591602001919060010190611677565b5b5090506116a091906116a4565b5090565b5b808211156116bd5760008160009055506001016116a5565b5090565b6000604051905090565b600080fd5b600080fd5b6000819050919050565b6116e8816116d5565b81146116f357600080fd5b50565b600081359050611705816116df565b92915050565b600060208284031215611721576117206116cb565b5b600061172f848285016116f6565b91505092915050565b600073ffffffffffffffffffffffffffffffffffffffff82169050919050565b600061176382611738565b9050919050565b61177381611758565b82525050565b600060208201905061178e600083018461176a565b92915050565b6000819050919050565b6117a781611794565b81146117b257600080fd5b50565b6000813590506117c48161179e565b92915050565b600060ff82169050919050565b6117e0816117ca565b81146117eb57600080fd5b50565b6000813590506117fd816117d7565b92915050565b6000806000806080858703121561181d5761181c6116cb565b5b600061182b878288016117b5565b945050602061183c878288016117b5565b935050604061184d878288016117b5565b925050606061185e878288016117ee565b91505092959194509250565b61187381611758565b811461187e57600080fd5b50565b6000813590506118908161186a565b92915050565b600080600080600080600080610100898b0312156118b7576118b66116cb565b5b60006118c58b828c01611881565b98505060206118d68b828c016116f6565b97505060406118e78b828c016116f6565b96505060606118f88b828c016116f6565b95505060806119098b828c016117b5565b94505060a061191a8b828c016117b5565b93505060c061192b8b828c016117b5565b92505060e061193c8b828c016117ee565b9150509295985092959890939650565b60008060008060008060c08789031215611969576119686116cb565b5b600061197789828a016116f6565b965050602061198889828a016116f6565b955050604061199989828a016117b5565b94505060606119aa89828a016117ee565b93505060806119bb89828a016117b5565b92505060a06119cc89828a016117b5565b9150509295509295509295565b600081519050919050565b600082825260208201905092915050565b60005b83811015611a135780820151818401526020810190506119f8565b83811115611a22576000848401525b50505050565b6000601f19601f8301169050919050565b6000611a44826119d9565b611a4e81856119e4565b9350611a5e8185602086016119f5565b611a6781611a28565b840191505092915050565b60006020820190508181036000830152611a8c8184611a39565b905092915050565b600080fd5b600080fd5b7f4e487b7100000000000000000000000000000000000000000000000000000000600052604160045260246000fd5b611ad682611a28565b810181811067ffffffffffffffff82111715611af557611af4611a9e565b5b80604052505050565b6000611b086116c1565b9050611b148282611acd565b919050565b600067ffffffffffffffff821115611b3457611b33611a9e565b5b611b3d82611a28565b9050602081019050919050565b82818337600083830152505050565b6000611b6c611b6784611b19565b611afe565b905082815260208101848484011115611b8857611b87611a99565b5b611b93848285611b4a565b509392505050565b600082601f830112611bb057611baf611a94565b5b8135611bc0848260208601611b59565b91505092915050565b60008060008060808587031215611be357611be26116cb565b5b6000611bf1878288016116f6565b945050602085013567ffffffffffffffff811115611c1257611c116116d0565b5b611c1e87828801611b9b565b9350506040611c2f87828801611881565b9250506060611c40878288016116f6565b91505092959194509250565b60008060008060008060c08789031215611c6957611c686116cb565b5b6000611c7789828a016117b5565b9650506020611c8889828a016117ee565b9550506040611c9989828a016117b5565b9450506060611caa89828a016117b5565b9350506080611cbb89828a016116f6565b92505060a0611ccc89828a016116f6565b9150509295509295509295565b60008060408385031215611cf057611cef6116cb565b5b6000611cfe858286016116f6565b9250506020611d0f858286016116f6565b9150509250929050565b7f4341522049532055534544000000000000000000000000000000000000000000600082015250565b6000611d4f600b836119e4565b9150611d5a82611d19565b602082019050919050565b60006020820190508181036000830152611d7e81611d42565b9050919050565b7f594f5520415245204e4f54205448452052454e54455200000000000000000000600082015250565b6000611dbb6016836119e4565b9150611dc682611d85565b602082019050919050565b60006020820190508181036000830152611dea81611dae565b9050919050565b7f594f5520415245204e4f5420544845204f574e45520000000000000000000000600082015250565b6000611e276015836119e4565b9150611e3282611df1565b602082019050919050565b60006020820190508181036000830152611e5681611e1a565b9050919050565b7f43414e54205749544844524157205748454e2052454e5445522049532053544960008201527f4c4c2044524956494e4700000000000000000000000000000000000000000000602082015250565b6000611eb9602a836119e4565b9150611ec482611e5d565b604082019050919050565b60006020820190508181036000830152611ee881611eac565b9050919050565b7f4e4f5420454e4f554748204445504f5349540000000000000000000000000000600082015250565b6000611f256012836119e4565b9150611f3082611eef565b602082019050919050565b60006020820190508181036000830152611f5481611f18565b9050919050565b7f4e4f54205349474e45442042592054484520534552564943452050524f56494460008201527f4552000000000000000000000000000000000000000000000000000000000000602082015250565b6000611fb76022836119e4565b9150611fc282611f5b565b604082019050919050565b60006020820190508181036000830152611fe681611faa565b9050919050565b7f594f5520415245204e4f54205448452043555252454e542052454e5445520000600082015250565b6000612023601e836119e4565b915061202e82611fed565b602082019050919050565b6000602082019050818103600083015261205281612016565b9050919050565b7f54494d4520574153204e4f54205349474e454420425920544845204341520000600082015250565b600061208f601e836119e4565b915061209a82612059565b602082019050919050565b600060208201905081810360008301526120be81612082565b9050919050565b7f4e487b7100000000000000000000000000000000000000000000000000000000600052601160045260246000fd5b60006120ff826116d5565b915061210a836116d5565b92508282101561211d5761211c6120c5565b5b828203905092915050565b6000612133826116d5565b915061213e836116d5565b9250817fffffffffffffffffffffffffffffffffffffffffffffffffffffffffffffffff0483118215151615612177576121766120c5565b5b828202905092915050565b600061218d826116d5565b9150612198836116d5565b9250827fffffffffffffffffffffffffffffffffffffffffffffffffffffffffffffffff038211156121cd576121cc6120c5565b5b828201905092915050565b7f52454e54455220484153204e4f54204558434545444544204d41582052454e5460008201527f2054494d45000000000000000000000000000000000000000000000000000000602082015250565b60006122346025836119e4565b915061223f826121d8565b604082019050919050565b6000602082019050818103600083015261226381612227565b9050919050565b7f4e487b7100000000000000000000000000000000000000000000000000000000600052602260045260246000fd5b600060028204905060018216806122b157607f821691505b602082108114156122c5576122c461226a565b5b50919050565b7f43415220484153204120504f54454e5449414c20445249564552000000000000600082015250565b6000612301601a836119e4565b915061230c826122cb565b602082019050919050565b60006020820190508181036000830152612330816122f4565b9050919050565b61234081611794565b82525050565b61234f816117ca565b82525050565b600060808201905061236a6000830187612337565b6123776020830186612346565b6123846040830185612337565b6123916060830184612337565b9594505050505056fea2646970667358221220f4483b81d97d36705ecdbe22f494c4f1aec20a8a466f5bdc29981caf8af8269f64736f6c63430008090033",
  "immutableReferences": {},
  "source": "// SPDX-License-Identifier: MIT\npragma solidity ^0.8.9;\n\ncontract CarGo {\n    uint256 constant DEPOSIT = 100000000000000;\n    //uint256 constant PENALTY = 1000000;\n    //uint constant MAXRENTTIME = 24 hours;\n    address constant SERVICE_PROVIDER = 0xfe0738A845DCEc5166378e1b4a735709DF57e0e3;\n        //0xd187E168bb36C41d767435Eb61E45ba08E29fC86;\n\n    mapping(uint256 => uint256) carBalance;\n    mapping(uint256 => uint256) startTime;\n    mapping(uint256 => uint256) carPrice;\n    mapping(uint256 => uint256) extraTime; //the extra time the renter asks for\n    mapping(uint256 => uint256) extraTimeCharge; //the fee that the extra time is charged\n    mapping(uint256 => address) carOwner;\n    mapping(uint256 => address) carRenter; \n    mapping(uint256 => address) carAdress; //used to check if the car signed the timestamps\n    mapping(uint256 => bool) carOccupied; //set to true when the renter has accessed the car\n    mapping(uint256 => string) accessToken;\n    mapping(uint256 => bool) carBooked; //set to true when the renter has booked the car but not entered yet (set to false when the renter has finished the ride)\n    mapping(uint256 => uint256) maxBookTime; //max time the renter can book the car for\n\n    // retner attributes\n    mapping(address => uint256) renterBalance;\n    mapping(address => bool) renterOccupied;\n    //mapping(address => address) renterAddress;\n\n    modifier checkDeposit() {\n        require(msg.value >= DEPOSIT, \"NOT ENOUGH DEPOSIT\");\n        _;\n    }\n\n    function isSignatureValid(\n        address _address,\n        bytes32 _hash,\n        uint8 _v,\n        bytes32 _r,\n        bytes32 _s\n    ) private pure returns (bool) {\n        address _signer = ecrecover(_hash, _v, _r, _s);\n        return (_signer == _address);\n    }\n\n    function registerCar(\n        address _carAdress,\n        uint256 _carID,\n        uint256 _price,\n        uint256 _extraPrice,\n        bytes32 _hash,\n        bytes32 _r,\n        bytes32 _s,\n        uint8 _v\n    ) external payable checkDeposit {\n        require(\n            isSignatureValid(SERVICE_PROVIDER, _hash, _v, _r, _s),\n            \"NOT SIGNED BY THE SERVICE PROVIDER\"\n        );\n        carBalance[_carID] = msg.value;\n        carOwner[_carID] = msg.sender;\n        carPrice[_carID] = _price;\n        extraTimeCharge[_carID] = _extraPrice;\n        carOccupied[_carID] = false;\n        carBooked[_carID] = false;\n        carAdress[_carID] = _carAdress;\n    }\n\n    // Register renter on-chain\n    function registerRenter(\n        bytes32 _hash,\n        bytes32 _r,\n        bytes32 _s,\n        uint8 _v\n    ) external payable checkDeposit {\n        require(\n            isSignatureValid(SERVICE_PROVIDER, _hash, _v, _r, _s),\n            \"NOT SIGNED BY THE SERVICE PROVIDER\"\n        );\n        renterBalance[msg.sender] = msg.value;\n        renterOccupied[msg.sender] = false;\n    }\n\n    function setAccessToken(\n        uint256 _carID,\n        string memory _cid,\n        address _renter,\n        uint256 _maxBookTime\n    ) external {\n        require(carOccupied[_carID] == false, \"CAR IS USED\");\n        require(msg.sender == carOwner[_carID], \"YOU ARE NOT THE OWNER\");\n        require(carBooked[_carID] == false, \"CAR HAS A POTENTIAL DRIVER\");\n        accessToken[_carID] = _cid;\n        carRenter[_carID] = _renter;\n        carBooked[_carID] = true; // safeguard to avoid double bookings of same car\n        maxBookTime[_carID] = _maxBookTime;  // specifies the max booking time\n    }\n\n    function beginBooking(\n        bytes32 _hash,\n        uint8 _v,\n        bytes32 _r,\n        bytes32 _s,\n        uint256 _carID,\n        uint256 _beginTime\n    ) external {\n        require(msg.sender == carRenter[_carID], \"YOU ARE NOT THE RENTER\");\n        require(\n            isSignatureValid(carAdress[_carID], _hash, _v, _r, _s),\n            \"TIME WAS NOT SIGNED BY THE CAR\"\n        );\n        startTime[_carID] = _beginTime;\n        carOccupied[_carID] = true;\n        renterOccupied[msg.sender] = true;\n    }\n\n    function setExtraTime(uint256 _carID, uint256 _extraTime) external {\n        require(msg.sender == carRenter[_carID], \"YOU ARE NOT THE CURRENT RENTER\");\n        extraTime[_carID] = _extraTime;\n    }\n\n    function endBooking(\n        uint256 _carID,\n        uint256 _endTime,\n        bytes32 _hash,\n        uint8 _v,\n        bytes32 _r,\n        bytes32 _s\n    ) external {\n        require(\n            msg.sender == carRenter[_carID],\n            \"YOU ARE NOT THE CURRENT RENTER\"\n        );\n        require(\n            isSignatureValid(carAdress[_carID], _hash, _v, _r, _s),\n            \"TIME WAS NOT SIGNED BY THE CAR\"\n        );\n        uint256 fee = carPrice[_carID] * (_endTime - startTime[_carID]);\n        if (extraTime[_carID] > 0) fee += extraTime[_carID] * extraTimeCharge[_carID];\n        carBalance[_carID] += fee;\n        carOccupied[_carID] = false;\n        carBooked[_carID] = false;\n        renterBalance[msg.sender] -= fee;\n        renterOccupied[msg.sender] = false;\n    }\n\n    function cancelBooking(uint256 _carID) external {\n        require(carOccupied[_carID] == false, \"CAR IS USED\");\n        require(msg.sender == carRenter[_carID], \"YOU ARE NOT THE RENTER\");\n        accessToken[_carID] = \"\";\n        carRenter[_carID] = address(0);\n        carBooked[_carID] = false; // the car returns to available state\n    }\n   \n\n   function forceEnding(uint256 _carID) external {\n    require(msg.sender == carOwner[_carID], \"YOU ARE NOT THE OWNER\");\n    require(startTime[_carID] + maxBookTime[_carID] < block.timestamp, \"RENTER HAS NOT EXCEEDED MAX RENT TIME\");\n\n    carBalance[_carID] += renterBalance[carRenter[_carID]]; // get renter balance\n   }\n\n   function withdrawMoneyToOwner(uint256 _carID) external {\n        require(msg.sender == carOwner[_carID], \"YOU ARE NOT THE OWNER\");\n        require(carOccupied[_carID] == false, \"CANT WITHDRAW WHEN RENTER IS STILL DRIVING\");\n\n        uint256 _amount = carBalance[_carID];\n        carBalance[_carID] = 0;\n        address _to = carOwner[_carID];\n\n        payable(_to).transfer(_amount);\n    }\n\n    function withdrawMoneyToRenter() external {\n        //require(msg.sender == renterAddress[msg.sender], \"YOU ARE NOT THE RENTER\");\n        require(\n            renterOccupied[msg.sender] == false,\n            \"CANT WITHDRAW WHEN RENTER IS STILL DRIVING\"\n        );\n        uint256 _amount = renterBalance[msg.sender];\n        renterBalance[msg.sender] = 0;\n        address _to = msg.sender;\n        payable(_to).transfer(_amount);\n    }\n\n    // Helper functions for debugging\n    function getAccessToken(uint256 _carID) external view returns (string memory)\n    {\n        return accessToken[_carID];\n    }\n\n    function getCarOwner(uint256 _carID) external view returns (address)\n    {\n        return carOwner[_carID];\n    }\n\n    function getCarRenter(uint256 _carID) external view returns (address)\n    {\n        return carRenter[_carID];\n    }\n}\n// pragma solidity ^0.8.9;\n\n// contract CarGo {\n//     uint256 constant DEPOSIT = 100000000000000;\n//     uint256 constant PENALTY = 1000000;\n//     uint constant MAXRENTTIME = 24 hours;\n//     address constant SERVICE_PROVIDER = //0xfe0738A845DCEc5166378e1b4a735709DF57e0e3;\n//         0xd187E168bb36C41d767435Eb61E45ba08E29fC86;\n\n//     mapping(uint256 => uint256) carBalance;\n//     mapping(uint256 => uint256) startTime;\n//     mapping(uint256 => uint256) carPrice;\n//     mapping(uint256 => uint256) extraTime;\n//     mapping(uint256 => uint256) extraTimeCharge;\n//     mapping(uint256 => address) carOwner;\n//     mapping(uint256 => address) carRenter; \n//     mapping(uint256 => address) carAdress;\n//     mapping(uint256 => bool) carOccupied;\n//     mapping(uint256 => string) accessToken;\n\n//     // retner attributes\n//     mapping(address => uint256) renterBalance;\n//     mapping(address => bool) renterOccupied;\n//     //mapping(address => address) renterAddress;\n\n//     modifier checkDeposit() {\n//         require(msg.value >= DEPOSIT, \"Not enough Ether provided as deposit\");\n//         _;\n//     }\n\n//     function isSignatureValid(\n//         address _address,\n//         bytes32 _hash,\n//         uint8 _v,\n//         bytes32 _r,\n//         bytes32 _s\n//     ) private pure returns (bool) {\n//         address _signer = ecrecover(_hash, _v, _r, _s);\n//         return (_signer == _address);\n//     }\n\n//     function registerCar(\n//         address _carAdress,\n//         uint256 _carID,\n//         uint256 _price,\n//         uint256 _extraPrice,\n//         bytes32 _hash,\n//         bytes32 _r,\n//         bytes32 _s,\n//         uint8 _v\n//     ) external payable checkDeposit {\n//         require(\n//             isSignatureValid(SERVICE_PROVIDER, _hash, _v, _r, _s),\n//             \"NOT SIGNED BY SERVICE PROVIDER\"\n//         );\n//         carBalance[_carID] = msg.value;\n//         carOwner[_carID] = msg.sender;\n//         carPrice[_carID] = _price;\n//         extraTimeCharge[_carID] = _extraPrice;\n//         carOccupied[_carID] = false;\n//         carAdress[_carID] = _carAdress;\n//     }\n\n//     // Register retner on-chain\n//     function registerRenter(\n//         bytes32 _hash,\n//         bytes32 _r,\n//         bytes32 _s,\n//         uint8 _v\n//     ) external payable checkDeposit {\n//         require(\n//             isSignatureValid(SERVICE_PROVIDER, _hash, _v, _r, _s),\n//             \"NOT SIGNED BY SERVICE PROVIDER\"\n//         );\n//         renterBalance[msg.sender] = msg.value;\n//         renterOccupied[msg.sender] = false;\n//         //renterAddress[msg.sender] = msg.sender;\n//     }\n\n//     function setAccessToken(\n//         uint256 _carID,\n//         string memory _cid,\n//         address _renter\n//     ) external {\n//         require(carOccupied[_carID] == false, \"CAR IS USED\");\n//         require(msg.sender == carOwner[_carID], \"YOU ARE NOT THE OWNER\");\n//         accessToken[_carID] = _cid;\n//         carRenter[_carID] = _renter;\n//     }\n\n//     function getAccessToken(uint256 _carID)\n//         external\n//         view\n//         returns (string memory)\n//     {\n//         return accessToken[_carID];\n//     }\n\n//     function beginBooking(\n//         bytes32 _hash,\n//         uint8 _v,\n//         bytes32 _r,\n//         bytes32 _s,\n//         uint256 _carID,\n//         uint256 _beginTime\n//     ) external {\n//         require(msg.sender == carRenter[_carID], \"YOU ARE NOT THE RENTER\");\n//         require(\n//             isSignatureValid(carAdress[_carID], _hash, _v, _r, _s),\n//             \"TIME WAS NOT SIGNED BY THE CAR\"\n//         );\n//         startTime[_carID] = _beginTime;\n//         carOccupied[_carID] = true;\n//         renterOccupied[msg.sender] = true;\n//     }\n\n//     function setExtraTime(uint256 _carID, uint256 _extraTime) external {\n//         require(msg.sender == carOwner[_carID], \"YOU ARE NOT THE OWNER\");\n//         extraTime[_carID] = _extraTime;\n//     }\n\n//     function endBooking(\n//         uint256 _carID,\n//         uint256 _endTime,\n//         bytes32 _hash,\n//         uint8 _v,\n//         bytes32 _r,\n//         bytes32 _s\n//     ) external {\n//         require(\n//             msg.sender == carRenter[_carID],\n//             \"YOU ARE NOT THE CURRENT RENTER\"\n//         );\n//         require(\n//             isSignatureValid(carAdress[_carID], _hash, _v, _r, _s),\n//             \"TIME WAS NOT SIGNED BY THE CAR\"\n//         );\n\n//         uint256 fee = carPrice[_carID] * (_endTime - startTime[_carID]);\n        \n\n//         if (extraTime[_carID] > 0) {\n//             fee += extraTime[_carID] * extraTimeCharge[_carID];\n//         }\n\n//         carBalance[_carID] += fee;\n//         carOccupied[_carID] = false;\n//         renterBalance[msg.sender] -= fee;\n//         renterOccupied[msg.sender] = false;\n//     }\n\n//     function getTime(uint256 _carID)\n//         external\n//         view\n//         returns (uint256)\n//     {\n//         return startTime[_carID];\n//     }\n\n//     function cancelBooking(uint256 _carID) external {\n//         if (msg.sender == carOwner[_carID]) {\n//             require(\n//                 startTime[_carID] > 0,\n//                 \"Ride has started, you can't cancel it\"\n//             );\n//             carRenter[_carID] = address(0);\n//             accessToken[_carID] = \"\";\n//         } else if (msg.sender == carRenter[_carID]) {\n//             require((renterBalance[msg.sender] - PENALTY) >= 0, \"not enough balance to cancel\");\n//             if (startTime[_carID] > 0 ) {\n//                 renterBalance[msg.sender] -= PENALTY;\n//                 uint256 fee = renterBalance[msg.sender] - PENALTY;\n//                 carBalance[_carID] += fee;\n//                 carOccupied[_carID] = false;\n//                 renterOccupied[msg.sender] = false;\n//             } else {\n//                 carRenter[_carID] = address(0);\n//                 accessToken[_carID] = \"\";\n//             }\n//         }\n//     }\n\n//     function withdrawMoneyToOwner(uint256 _carID) external {\n//         require(msg.sender == carOwner[_carID], \"YOU ARE NOT THE OWNER\");\n//         require(carOccupied[_carID] == false, \"CANT WITHDRAW WHEN RENTER IS STILL DRIVING\");\n\n//         uint256 _amount = carBalance[_carID];\n//         carBalance[_carID] = 0;\n//         address _to = carOwner[_carID];\n\n//         payable(_to).transfer(_amount);\n//     }\n\n//     function withdrawMoneyToRenter() external {\n//         //require(msg.sender == renterAddress[msg.sender], \"YOU ARE NOT THE RENTER\");\n//         require(\n//             renterOccupied[msg.sender] == false,\n//             \"CANT WITHDRAW WHEN RENTER IS STILL DRIVING\"\n//         );\n//         uint256 _amount = renterBalance[msg.sender];\n//         renterBalance[msg.sender] = 0;\n//         address _to = msg.sender;\n//         payable(_to).transfer(_amount);\n//     }\n\n\n//     // function forceEnding(uint256 _carID) external {\n//     //     require(msg.sender == carOwner[_carID], \"YOU ARE NOT THE OWNER\");\n//     //     require(\n//     //         carOccupied[_carID] == false,\n//     //         \"CANT FORCE ENDING IF CAR IS NOT OCCUPIED\"\n//     //     );\n//     //     require(startTime[_carID] > MAXRENTTIME, \"YOU CAN'T FORCE ENDING YET\");\n//     //     uint256 _amount = renterBalance[msg.sender];\n//     //     renterBalance[msg.sender] = 0;\n//     //     payable(msg.sender).transfer(_amount);\n//     // }\n    \n// }",
  "sourcePath": "/home/aris/Desktop/decentalised-car-sharing-system/truffle/contracts/CarGo.sol",
  "compiler": {
    "name": "solc",
    "version": "0.8.9+commit.e5eed63a.Emscripten.clang"
  },
  "schemaVersion": "3.4.7",
  "updatedAt": "2022-08-21T10:03:01.650Z",
  "networkType": "ethereum",
  "devdoc": {
    "kind": "dev",
    "methods": {},
    "version": 1
  },
  "userdoc": {
    "kind": "user",
    "methods": {},
    "version": 1
  }
}