{
  "contractName": "Test",
  "abi": [
    {
      "inputs": [
        {
          "internalType": "address",
          "name": "_carAdress",
          "type": "address"
        },
        {
          "internalType": "uint256",
          "name": "_carID",
          "type": "uint256"
        },
        {
          "internalType": "uint256",
          "name": "_price",
          "type": "uint256"
        },
        {
          "internalType": "uint256",
          "name": "_extraPrice",
          "type": "uint256"
        },
        {
          "internalType": "bytes32",
          "name": "_hash",
          "type": "bytes32"
        },
        {
          "internalType": "bytes32",
          "name": "_r",
          "type": "bytes32"
        },
        {
          "internalType": "bytes32",
          "name": "_s",
          "type": "bytes32"
        },
        {
          "internalType": "uint8",
          "name": "_v",
          "type": "uint8"
        }
      ],
      "name": "registerCar",
      "outputs": [],
      "stateMutability": "payable",
      "type": "function"
    },
    {
      "inputs": [
        {
          "internalType": "bytes32",
          "name": "_hash",
          "type": "bytes32"
        },
        {
          "internalType": "bytes32",
          "name": "_r",
          "type": "bytes32"
        },
        {
          "internalType": "bytes32",
          "name": "_s",
          "type": "bytes32"
        },
        {
          "internalType": "uint8",
          "name": "_v",
          "type": "uint8"
        }
      ],
      "name": "registerRenter",
      "outputs": [],
      "stateMutability": "payable",
      "type": "function"
    },
    {
      "inputs": [
        {
          "internalType": "uint256",
          "name": "_carID",
          "type": "uint256"
        },
        {
          "internalType": "string",
          "name": "_cid",
          "type": "string"
        },
        {
          "internalType": "address",
          "name": "_renter",
          "type": "address"
        },
        {
          "internalType": "uint256",
          "name": "_maxBookTime",
          "type": "uint256"
        }
      ],
      "name": "setAccessToken",
      "outputs": [],
      "stateMutability": "nonpayable",
      "type": "function"
    },
    {
      "inputs": [
        {
          "internalType": "uint256",
          "name": "_carID",
          "type": "uint256"
        }
      ],
      "name": "getAccessToken",
      "outputs": [
        {
          "internalType": "string",
          "name": "",
          "type": "string"
        }
      ],
      "stateMutability": "view",
      "type": "function"
    },
    {
      "inputs": [
        {
          "internalType": "bytes32",
          "name": "_hash",
          "type": "bytes32"
        },
        {
          "internalType": "uint8",
          "name": "_v",
          "type": "uint8"
        },
        {
          "internalType": "bytes32",
          "name": "_r",
          "type": "bytes32"
        },
        {
          "internalType": "bytes32",
          "name": "_s",
          "type": "bytes32"
        },
        {
          "internalType": "uint256",
          "name": "_carID",
          "type": "uint256"
        },
        {
          "internalType": "uint256",
          "name": "_beginTime",
          "type": "uint256"
        }
      ],
      "name": "beginBooking",
      "outputs": [],
      "stateMutability": "nonpayable",
      "type": "function"
    },
    {
      "inputs": [
        {
          "internalType": "uint256",
          "name": "_carID",
          "type": "uint256"
        },
        {
          "internalType": "uint256",
          "name": "_extraTime",
          "type": "uint256"
        }
      ],
      "name": "setExtraTime",
      "outputs": [],
      "stateMutability": "nonpayable",
      "type": "function"
    },
    {
      "inputs": [
        {
          "internalType": "uint256",
          "name": "_carID",
          "type": "uint256"
        },
        {
          "internalType": "uint256",
          "name": "_endTime",
          "type": "uint256"
        },
        {
          "internalType": "bytes32",
          "name": "_hash",
          "type": "bytes32"
        },
        {
          "internalType": "uint8",
          "name": "_v",
          "type": "uint8"
        },
        {
          "internalType": "bytes32",
          "name": "_r",
          "type": "bytes32"
        },
        {
          "internalType": "bytes32",
          "name": "_s",
          "type": "bytes32"
        }
      ],
      "name": "endBooking",
      "outputs": [],
      "stateMutability": "nonpayable",
      "type": "function"
    },
    {
      "inputs": [
        {
          "internalType": "uint256",
          "name": "_carID",
          "type": "uint256"
        }
      ],
      "name": "cancelBooking",
      "outputs": [],
      "stateMutability": "nonpayable",
      "type": "function"
    },
    {
      "inputs": [
        {
          "internalType": "uint256",
          "name": "_carID",
          "type": "uint256"
        }
      ],
      "name": "forceEnding",
      "outputs": [],
      "stateMutability": "nonpayable",
      "type": "function"
    },
    {
      "inputs": [
        {
          "internalType": "uint256",
          "name": "_carID",
          "type": "uint256"
        }
      ],
      "name": "withdrawMoneyToOwner",
      "outputs": [],
      "stateMutability": "nonpayable",
      "type": "function"
    },
    {
      "inputs": [],
      "name": "withdrawMoneyToRenter",
      "outputs": [],
      "stateMutability": "nonpayable",
      "type": "function"
    }
  ],
  "bytecode": "0x608060405234801561001057600080fd5b5061228c806100206000396000f3fe60806040526004361061009c5760003560e01c806367eb83251161006457806367eb8325146101425780638f64c0ef1461016b578063991acf6e14610194578063a9d7c4dd146101d1578063b8a2d97f146101fa578063dc21af29146102235761009c565b80630dca825e146100a157806316b8880e146100ca5780632923cc98146100f35780634e5a82011461010a57806358b861eb14610126575b600080fd5b3480156100ad57600080fd5b506100c860048036038101906100c391906115f1565b61024c565b005b3480156100d657600080fd5b506100f160048036038101906100ec91906115f1565b61040d565b005b3480156100ff57600080fd5b506101086105c8565b005b610124600480360381019061011f919061168d565b610734565b005b610140600480360381019061013b9190611752565b61087f565b005b34801561014e57600080fd5b5061016960048036038101906101649190611808565b610a75565b005b34801561017757600080fd5b50610192600480360381019061018d91906115f1565b610d6a565b005b3480156101a057600080fd5b506101bb60048036038101906101b691906115f1565b610f1c565b6040516101c8919061192e565b60405180910390f35b3480156101dd57600080fd5b506101f860048036038101906101f39190611a85565b610fc1565b005b34801561020657600080fd5b50610221600480360381019061021c9190611b08565b6111f4565b005b34801561022f57600080fd5b5061024a60048036038101906102459190611b95565b6113b8565b005b600015156008600083815260200190815260200160002060009054906101000a900460ff161515146102b3576040517f08c379a00000000000000000000000000000000000000000000000000000000081526004016102aa90611c21565b60405180910390fd5b6006600082815260200190815260200160002060009054906101000a900473ffffffffffffffffffffffffffffffffffffffff1673ffffffffffffffffffffffffffffffffffffffff163373ffffffffffffffffffffffffffffffffffffffff1614610354576040517f08c379a000000000000000000000000000000000000000000000000000000000815260040161034b90611c8d565b60405180910390fd5b6040518060200160405280600081525060096000838152602001908152602001600020908051906020019061038a929190611504565b5060006006600083815260200190815260200160002060006101000a81548173ffffffffffffffffffffffffffffffffffffffff021916908373ffffffffffffffffffffffffffffffffffffffff1602179055506000600a600083815260200190815260200160002060006101000a81548160ff02191690831515021790555050565b6005600082815260200190815260200160002060009054906101000a900473ffffffffffffffffffffffffffffffffffffffff1673ffffffffffffffffffffffffffffffffffffffff163373ffffffffffffffffffffffffffffffffffffffff16146104ae576040517f08c379a00000000000000000000000000000000000000000000000000000000081526004016104a590611cf9565b60405180910390fd5b600015156008600083815260200190815260200160002060009054906101000a900460ff16151514610515576040517f08c379a000000000000000000000000000000000000000000000000000000000815260040161050c90611d8b565b60405180910390fd5b600080600083815260200190815260200160002054905060008060008481526020019081526020016000208190555060006005600084815260200190815260200160002060009054906101000a900473ffffffffffffffffffffffffffffffffffffffff1690508073ffffffffffffffffffffffffffffffffffffffff166108fc839081150290604051600060405180830381858888f193505050501580156105c2573d6000803e3d6000fd5b50505050565b60001515600d60003373ffffffffffffffffffffffffffffffffffffffff1673ffffffffffffffffffffffffffffffffffffffff16815260200190815260200160002060009054906101000a900460ff1615151461065b576040517f08c379a000000000000000000000000000000000000000000000000000000000815260040161065290611d8b565b60405180910390fd5b6000600c60003373ffffffffffffffffffffffffffffffffffffffff1673ffffffffffffffffffffffffffffffffffffffff1681526020019081526020016000205490506000600c60003373ffffffffffffffffffffffffffffffffffffffff1673ffffffffffffffffffffffffffffffffffffffff1681526020019081526020016000208190555060003390508073ffffffffffffffffffffffffffffffffffffffff166108fc839081150290604051600060405180830381858888f1935050505015801561072f573d6000803e3d6000fd5b505050565b655af3107a400034101561077d576040517f08c379a000000000000000000000000000000000000000000000000000000000815260040161077490611df7565b60405180910390fd5b61079e73d187e168bb36c41d767435eb61e45ba08e29fc8685838686611475565b6107dd576040517f08c379a00000000000000000000000000000000000000000000000000000000081526004016107d490611e89565b60405180910390fd5b34600c60003373ffffffffffffffffffffffffffffffffffffffff1673ffffffffffffffffffffffffffffffffffffffff168152602001908152602001600020819055506000600d60003373ffffffffffffffffffffffffffffffffffffffff1673ffffffffffffffffffffffffffffffffffffffff16815260200190815260200160002060006101000a81548160ff02191690831515021790555050505050565b655af3107a40003410156108c8576040517f08c379a00000000000000000000000000000000000000000000000000000000081526004016108bf90611df7565b60405180910390fd5b6108e973d187e168bb36c41d767435eb61e45ba08e29fc8685838686611475565b610928576040517f08c379a000000000000000000000000000000000000000000000000000000000815260040161091f90611e89565b60405180910390fd5b3460008089815260200190815260200160002081905550336005600089815260200190815260200160002060006101000a81548173ffffffffffffffffffffffffffffffffffffffff021916908373ffffffffffffffffffffffffffffffffffffffff16021790555085600260008981526020019081526020016000208190555084600460008981526020019081526020016000208190555060006008600089815260200190815260200160002060006101000a81548160ff0219169083151502179055506000600a600089815260200190815260200160002060006101000a81548160ff021916908315150217905550876007600089815260200190815260200160002060006101000a81548173ffffffffffffffffffffffffffffffffffffffff021916908373ffffffffffffffffffffffffffffffffffffffff1602179055505050505050505050565b6006600087815260200190815260200160002060009054906101000a900473ffffffffffffffffffffffffffffffffffffffff1673ffffffffffffffffffffffffffffffffffffffff163373ffffffffffffffffffffffffffffffffffffffff1614610b16576040517f08c379a0000000000000000000000000000000000000000000000000000000008152600401610b0d90611ef5565b60405180910390fd5b610b566007600088815260200190815260200160002060009054906101000a900473ffffffffffffffffffffffffffffffffffffffff1685858585611475565b610b95576040517f08c379a0000000000000000000000000000000000000000000000000000000008152600401610b8c90611f61565b60405180910390fd5b6000600160008881526020019081526020016000205486610bb69190611fb0565b6002600089815260200190815260200160002054610bd49190611fe4565b9050600060036000898152602001908152602001600020541115610c325760046000888152602001908152602001600020546003600089815260200190815260200160002054610c249190611fe4565b81610c2f919061203e565b90505b806000808981526020019081526020016000206000828254610c54919061203e565b9250508190555060006008600089815260200190815260200160002060006101000a81548160ff0219169083151502179055506000600a600089815260200190815260200160002060006101000a81548160ff02191690831515021790555080600c60003373ffffffffffffffffffffffffffffffffffffffff1673ffffffffffffffffffffffffffffffffffffffff1681526020019081526020016000206000828254610d029190611fb0565b925050819055506000600d60003373ffffffffffffffffffffffffffffffffffffffff1673ffffffffffffffffffffffffffffffffffffffff16815260200190815260200160002060006101000a81548160ff02191690831515021790555050505050505050565b6005600082815260200190815260200160002060009054906101000a900473ffffffffffffffffffffffffffffffffffffffff1673ffffffffffffffffffffffffffffffffffffffff163373ffffffffffffffffffffffffffffffffffffffff1614610e0b576040517f08c379a0000000000000000000000000000000000000000000000000000000008152600401610e0290611cf9565b60405180910390fd5b42600b6000838152602001908152602001600020546001600084815260200190815260200160002054610e3e919061203e565b10610e7e576040517f08c379a0000000000000000000000000000000000000000000000000000000008152600401610e7590612106565b60405180910390fd5b600c60006006600084815260200190815260200160002060009054906101000a900473ffffffffffffffffffffffffffffffffffffffff1673ffffffffffffffffffffffffffffffffffffffff1673ffffffffffffffffffffffffffffffffffffffff168152602001908152602001600020546000808381526020019081526020016000206000828254610f12919061203e565b9250508190555050565b6060600960008381526020019081526020016000208054610f3c90612155565b80601f0160208091040260200160405190810160405280929190818152602001828054610f6890612155565b8015610fb55780601f10610f8a57610100808354040283529160200191610fb5565b820191906000526020600020905b815481529060010190602001808311610f9857829003601f168201915b50505050509050919050565b600015156008600086815260200190815260200160002060009054906101000a900460ff16151514611028576040517f08c379a000000000000000000000000000000000000000000000000000000000815260040161101f90611c21565b60405180910390fd5b6005600085815260200190815260200160002060009054906101000a900473ffffffffffffffffffffffffffffffffffffffff1673ffffffffffffffffffffffffffffffffffffffff163373ffffffffffffffffffffffffffffffffffffffff16146110c9576040517f08c379a00000000000000000000000000000000000000000000000000000000081526004016110c090611cf9565b60405180910390fd5b60001515600a600086815260200190815260200160002060009054906101000a900460ff16151514611130576040517f08c379a0000000000000000000000000000000000000000000000000000000008152600401611127906121d3565b60405180910390fd5b82600960008681526020019081526020016000209080519060200190611157929190611504565b50816006600086815260200190815260200160002060006101000a81548173ffffffffffffffffffffffffffffffffffffffff021916908373ffffffffffffffffffffffffffffffffffffffff1602179055506001600a600086815260200190815260200160002060006101000a81548160ff02191690831515021790555080600b60008681526020019081526020016000208190555050505050565b6006600083815260200190815260200160002060009054906101000a900473ffffffffffffffffffffffffffffffffffffffff1673ffffffffffffffffffffffffffffffffffffffff163373ffffffffffffffffffffffffffffffffffffffff1614611295576040517f08c379a000000000000000000000000000000000000000000000000000000000815260040161128c90611c8d565b60405180910390fd5b6112d56007600084815260200190815260200160002060009054906101000a900473ffffffffffffffffffffffffffffffffffffffff1687878787611475565b611314576040517f08c379a000000000000000000000000000000000000000000000000000000000815260040161130b90611f61565b60405180910390fd5b80600160008481526020019081526020016000208190555060016008600084815260200190815260200160002060006101000a81548160ff0219169083151502179055506001600d60003373ffffffffffffffffffffffffffffffffffffffff1673ffffffffffffffffffffffffffffffffffffffff16815260200190815260200160002060006101000a81548160ff021916908315150217905550505050505050565b6005600083815260200190815260200160002060009054906101000a900473ffffffffffffffffffffffffffffffffffffffff1673ffffffffffffffffffffffffffffffffffffffff163373ffffffffffffffffffffffffffffffffffffffff1614611459576040517f08c379a000000000000000000000000000000000000000000000000000000000815260040161145090611cf9565b60405180910390fd5b8060036000848152602001908152602001600020819055505050565b6000806001868686866040516000815260200160405260405161149b9493929190612211565b6020604051602081039080840390855afa1580156114bd573d6000803e3d6000fd5b5050506020604051035190508673ffffffffffffffffffffffffffffffffffffffff168173ffffffffffffffffffffffffffffffffffffffff161491505095945050505050565b82805461151090612155565b90600052602060002090601f0160209004810192826115325760008555611579565b82601f1061154b57805160ff1916838001178555611579565b82800160010185558215611579579182015b8281111561157857825182559160200191906001019061155d565b5b509050611586919061158a565b5090565b5b808211156115a357600081600090555060010161158b565b5090565b6000604051905090565b600080fd5b600080fd5b6000819050919050565b6115ce816115bb565b81146115d957600080fd5b50565b6000813590506115eb816115c5565b92915050565b600060208284031215611607576116066115b1565b5b6000611615848285016115dc565b91505092915050565b6000819050919050565b6116318161161e565b811461163c57600080fd5b50565b60008135905061164e81611628565b92915050565b600060ff82169050919050565b61166a81611654565b811461167557600080fd5b50565b60008135905061168781611661565b92915050565b600080600080608085870312156116a7576116a66115b1565b5b60006116b58782880161163f565b94505060206116c68782880161163f565b93505060406116d78782880161163f565b92505060606116e887828801611678565b91505092959194509250565b600073ffffffffffffffffffffffffffffffffffffffff82169050919050565b600061171f826116f4565b9050919050565b61172f81611714565b811461173a57600080fd5b50565b60008135905061174c81611726565b92915050565b600080600080600080600080610100898b031215611773576117726115b1565b5b60006117818b828c0161173d565b98505060206117928b828c016115dc565b97505060406117a38b828c016115dc565b96505060606117b48b828c016115dc565b95505060806117c58b828c0161163f565b94505060a06117d68b828c0161163f565b93505060c06117e78b828c0161163f565b92505060e06117f88b828c01611678565b9150509295985092959890939650565b60008060008060008060c08789031215611825576118246115b1565b5b600061183389828a016115dc565b965050602061184489828a016115dc565b955050604061185589828a0161163f565b945050606061186689828a01611678565b935050608061187789828a0161163f565b92505060a061188889828a0161163f565b9150509295509295509295565b600081519050919050565b600082825260208201905092915050565b60005b838110156118cf5780820151818401526020810190506118b4565b838111156118de576000848401525b50505050565b6000601f19601f8301169050919050565b600061190082611895565b61190a81856118a0565b935061191a8185602086016118b1565b611923816118e4565b840191505092915050565b6000602082019050818103600083015261194881846118f5565b905092915050565b600080fd5b600080fd5b7f4e487b7100000000000000000000000000000000000000000000000000000000600052604160045260246000fd5b611992826118e4565b810181811067ffffffffffffffff821117156119b1576119b061195a565b5b80604052505050565b60006119c46115a7565b90506119d08282611989565b919050565b600067ffffffffffffffff8211156119f0576119ef61195a565b5b6119f9826118e4565b9050602081019050919050565b82818337600083830152505050565b6000611a28611a23846119d5565b6119ba565b905082815260208101848484011115611a4457611a43611955565b5b611a4f848285611a06565b509392505050565b600082601f830112611a6c57611a6b611950565b5b8135611a7c848260208601611a15565b91505092915050565b60008060008060808587031215611a9f57611a9e6115b1565b5b6000611aad878288016115dc565b945050602085013567ffffffffffffffff811115611ace57611acd6115b6565b5b611ada87828801611a57565b9350506040611aeb8782880161173d565b9250506060611afc878288016115dc565b91505092959194509250565b60008060008060008060c08789031215611b2557611b246115b1565b5b6000611b3389828a0161163f565b9650506020611b4489828a01611678565b9550506040611b5589828a0161163f565b9450506060611b6689828a0161163f565b9350506080611b7789828a016115dc565b92505060a0611b8889828a016115dc565b9150509295509295509295565b60008060408385031215611bac57611bab6115b1565b5b6000611bba858286016115dc565b9250506020611bcb858286016115dc565b9150509250929050565b7f4341522049532055534544000000000000000000000000000000000000000000600082015250565b6000611c0b600b836118a0565b9150611c1682611bd5565b602082019050919050565b60006020820190508181036000830152611c3a81611bfe565b9050919050565b7f594f5520415245204e4f54205448452052454e54455200000000000000000000600082015250565b6000611c776016836118a0565b9150611c8282611c41565b602082019050919050565b60006020820190508181036000830152611ca681611c6a565b9050919050565b7f594f5520415245204e4f5420544845204f574e45520000000000000000000000600082015250565b6000611ce36015836118a0565b9150611cee82611cad565b602082019050919050565b60006020820190508181036000830152611d1281611cd6565b9050919050565b7f43414e54205749544844524157205748454e2052454e5445522049532053544960008201527f4c4c2044524956494e4700000000000000000000000000000000000000000000602082015250565b6000611d75602a836118a0565b9150611d8082611d19565b604082019050919050565b60006020820190508181036000830152611da481611d68565b9050919050565b7f4e4f5420454e4f554748204445504f5349540000000000000000000000000000600082015250565b6000611de16012836118a0565b9150611dec82611dab565b602082019050919050565b60006020820190508181036000830152611e1081611dd4565b9050919050565b7f4e4f54205349474e45442042592054484520534552564943452050524f56494460008201527f4552000000000000000000000000000000000000000000000000000000000000602082015250565b6000611e736022836118a0565b9150611e7e82611e17565b604082019050919050565b60006020820190508181036000830152611ea281611e66565b9050919050565b7f594f5520415245204e4f54205448452043555252454e542052454e5445520000600082015250565b6000611edf601e836118a0565b9150611eea82611ea9565b602082019050919050565b60006020820190508181036000830152611f0e81611ed2565b9050919050565b7f54494d4520574153204e4f54205349474e454420425920544845204341520000600082015250565b6000611f4b601e836118a0565b9150611f5682611f15565b602082019050919050565b60006020820190508181036000830152611f7a81611f3e565b9050919050565b7f4e487b7100000000000000000000000000000000000000000000000000000000600052601160045260246000fd5b6000611fbb826115bb565b9150611fc6836115bb565b925082821015611fd957611fd8611f81565b5b828203905092915050565b6000611fef826115bb565b9150611ffa836115bb565b9250817fffffffffffffffffffffffffffffffffffffffffffffffffffffffffffffffff048311821515161561203357612032611f81565b5b828202905092915050565b6000612049826115bb565b9150612054836115bb565b9250827fffffffffffffffffffffffffffffffffffffffffffffffffffffffffffffffff0382111561208957612088611f81565b5b828201905092915050565b7f52454e54455220484153204e4f54204558434545444544204d41582052454e5460008201527f2054494d45000000000000000000000000000000000000000000000000000000602082015250565b60006120f06025836118a0565b91506120fb82612094565b604082019050919050565b6000602082019050818103600083015261211f816120e3565b9050919050565b7f4e487b7100000000000000000000000000000000000000000000000000000000600052602260045260246000fd5b6000600282049050600182168061216d57607f821691505b6020821081141561218157612180612126565b5b50919050565b7f43415220484153204120504f54454e5449414c20445249564552000000000000600082015250565b60006121bd601a836118a0565b91506121c882612187565b602082019050919050565b600060208201905081810360008301526121ec816121b0565b9050919050565b6121fc8161161e565b82525050565b61220b81611654565b82525050565b600060808201905061222660008301876121f3565b6122336020830186612202565b61224060408301856121f3565b61224d60608301846121f3565b9594505050505056fea264697066735822122041a501e946a0499ffcf4cd5b278069c8613829ab3f5f14580a0e6e57ce2fc64464736f6c63430008090033",
  "immutableReferences": {},
  "source": "// SPDX-License-Identifier: MIT\npragma solidity ^0.8.9;\n\ncontract Test {\n    uint256 constant DEPOSIT = 100000000000000;\n    uint256 constant PENALTY = 1000000;\n    //uint constant MAXRENTTIME = 24 hours;\n    address constant SERVICE_PROVIDER = //0xfe0738A845DCEc5166378e1b4a735709DF57e0e3;\n        0xd187E168bb36C41d767435Eb61E45ba08E29fC86;\n\n    mapping(uint256 => uint256) carBalance;\n    mapping(uint256 => uint256) startTime;\n    mapping(uint256 => uint256) carPrice;\n    mapping(uint256 => uint256) extraTime; //the extra time the renter asks for\n    mapping(uint256 => uint256) extraTimeCharge; //the fee that the extra time is charged\n    mapping(uint256 => address) carOwner;\n    mapping(uint256 => address) carRenter; \n    mapping(uint256 => address) carAdress; //used to check if the car signed the timestamps\n    mapping(uint256 => bool) carOccupied; //set to true when the renter has accessed the car\n    mapping(uint256 => string) accessToken;\n    mapping(uint256 => bool) carBooked; //set to true when the renter has booked the car but not entered yet (set to false when the renter has finished the ride)\n    mapping(uint256 => uint256) maxBookTime; //max time the renter can book the car for\n\n    // retner attributes\n    mapping(address => uint256) renterBalance;\n    mapping(address => bool) renterOccupied;\n    //mapping(address => address) renterAddress;\n\n    modifier checkDeposit() {\n        require(msg.value >= DEPOSIT, \"NOT ENOUGH DEPOSIT\");\n        _;\n    }\n\n    function isSignatureValid(\n        address _address,\n        bytes32 _hash,\n        uint8 _v,\n        bytes32 _r,\n        bytes32 _s\n    ) private pure returns (bool) {\n        address _signer = ecrecover(_hash, _v, _r, _s);\n        return (_signer == _address);\n    }\n\n    function registerCar(\n        address _carAdress,\n        uint256 _carID,\n        uint256 _price,\n        uint256 _extraPrice,\n        bytes32 _hash,\n        bytes32 _r,\n        bytes32 _s,\n        uint8 _v\n    ) external payable checkDeposit {\n        require(\n            isSignatureValid(SERVICE_PROVIDER, _hash, _v, _r, _s),\n            \"NOT SIGNED BY THE SERVICE PROVIDER\"\n        );\n        carBalance[_carID] = msg.value;\n        carOwner[_carID] = msg.sender;\n        carPrice[_carID] = _price;\n        extraTimeCharge[_carID] = _extraPrice;\n        carOccupied[_carID] = false;\n        carBooked[_carID] = false;\n        carAdress[_carID] = _carAdress;\n    }\n\n    // Register renter on-chain\n    function registerRenter(\n        bytes32 _hash,\n        bytes32 _r,\n        bytes32 _s,\n        uint8 _v\n    ) external payable checkDeposit {\n        require(\n            isSignatureValid(SERVICE_PROVIDER, _hash, _v, _r, _s),\n            \"NOT SIGNED BY THE SERVICE PROVIDER\"\n        );\n        renterBalance[msg.sender] = msg.value;\n        renterOccupied[msg.sender] = false;\n    }\n\n    function setAccessToken(\n        uint256 _carID,\n        string memory _cid,\n        address _renter,\n        uint256 _maxBookTime\n    ) external {\n        require(carOccupied[_carID] == false, \"CAR IS USED\");\n        require(msg.sender == carOwner[_carID], \"YOU ARE NOT THE OWNER\");\n        require(carBooked[_carID] == false, \"CAR HAS A POTENTIAL DRIVER\");\n        accessToken[_carID] = _cid;\n        carRenter[_carID] = _renter;\n        carBooked[_carID] = true; // safeguard to avoid double bookings of same car\n        maxBookTime[_carID] = _maxBookTime;  // specifies the max booking time\n    }\n\n    function getAccessToken(uint256 _carID)\n        external\n        view\n        returns (string memory)\n    {\n        return accessToken[_carID];\n    }\n\n    function beginBooking(\n        bytes32 _hash,\n        uint8 _v,\n        bytes32 _r,\n        bytes32 _s,\n        uint256 _carID,\n        uint256 _beginTime\n    ) external {\n        require(msg.sender == carRenter[_carID], \"YOU ARE NOT THE RENTER\");\n        require(\n            isSignatureValid(carAdress[_carID], _hash, _v, _r, _s),\n            \"TIME WAS NOT SIGNED BY THE CAR\"\n        );\n        startTime[_carID] = _beginTime;\n        carOccupied[_carID] = true;\n        renterOccupied[msg.sender] = true;\n    }\n\n    function setExtraTime(uint256 _carID, uint256 _extraTime) external {\n        require(msg.sender == carOwner[_carID], \"YOU ARE NOT THE OWNER\");\n        extraTime[_carID] = _extraTime;\n    }\n\n    function endBooking(\n        uint256 _carID,\n        uint256 _endTime,\n        bytes32 _hash,\n        uint8 _v,\n        bytes32 _r,\n        bytes32 _s\n    ) external {\n        require(\n            msg.sender == carRenter[_carID],\n            \"YOU ARE NOT THE CURRENT RENTER\"\n        );\n        require(\n            isSignatureValid(carAdress[_carID], _hash, _v, _r, _s),\n            \"TIME WAS NOT SIGNED BY THE CAR\"\n        );\n        uint256 fee = carPrice[_carID] * (_endTime - startTime[_carID]);\n        if (extraTime[_carID] > 0) fee += extraTime[_carID] * extraTimeCharge[_carID];\n        carBalance[_carID] += fee;\n        carOccupied[_carID] = false;\n        carBooked[_carID] = false;\n        renterBalance[msg.sender] -= fee;\n        renterOccupied[msg.sender] = false;\n    }\n\n    function cancelBooking(uint256 _carID) external {\n        require(carOccupied[_carID] == false, \"CAR IS USED\");\n        require(msg.sender == carRenter[_carID], \"YOU ARE NOT THE RENTER\");\n        accessToken[_carID] = \"\";\n        carRenter[_carID] = address(0);\n        carBooked[_carID] = false; // the car returns to available state\n    }\n   \n\n   function forceEnding(uint256 _carID) external {\n    require(msg.sender == carOwner[_carID], \"YOU ARE NOT THE OWNER\");\n    require(startTime[_carID] + maxBookTime[_carID] < block.timestamp, \"RENTER HAS NOT EXCEEDED MAX RENT TIME\");\n\n    carBalance[_carID] += renterBalance[carRenter[_carID]]; // get renter balance\n   }\n\n   function withdrawMoneyToOwner(uint256 _carID) external {\n        require(msg.sender == carOwner[_carID], \"YOU ARE NOT THE OWNER\");\n        require(carOccupied[_carID] == false, \"CANT WITHDRAW WHEN RENTER IS STILL DRIVING\");\n\n        uint256 _amount = carBalance[_carID];\n        carBalance[_carID] = 0;\n        address _to = carOwner[_carID];\n\n        payable(_to).transfer(_amount);\n    }\n\n    function withdrawMoneyToRenter() external {\n        //require(msg.sender == renterAddress[msg.sender], \"YOU ARE NOT THE RENTER\");\n        require(\n            renterOccupied[msg.sender] == false,\n            \"CANT WITHDRAW WHEN RENTER IS STILL DRIVING\"\n        );\n        uint256 _amount = renterBalance[msg.sender];\n        renterBalance[msg.sender] = 0;\n        address _to = msg.sender;\n        payable(_to).transfer(_amount);\n    }\n}",
  "sourcePath": "/home/aris/Desktop/decentalised-car-sharing-system/truffle/contracts/Test.sol",
  "compiler": {
    "name": "solc",
    "version": "0.8.9+commit.e5eed63a.Emscripten.clang"
  },
  "schemaVersion": "3.4.7",
  "updatedAt": "2022-08-20T18:16:37.749Z",
  "devdoc": {
    "kind": "dev",
    "methods": {},
    "version": 1
  },
  "userdoc": {
    "kind": "user",
    "methods": {},
    "version": 1
  }
}